:020000040800F2
:10000000480500203D140008B1010008B3010008B4
:10001000B7010008BB010008BF0100080000000094
:10002000000000000000000000000000C301000804
:10003000C501000800000000C7010008C901000850
:1000400057140008571400085714000857140008E4
:1000500057140008571400085714000857140008D4
:1000600057140008571400085714000857140008C4
:1000700057140008571400085714000857140008B4
:1000800057140008571400085714000857140008A4
:100090005714000857140008571400085714000894
:1000A0005714000857140008571400085714000884
:1000B00057140008AB0E0008571400085714000826
:1000C0005714000857140008571400085714000864
:1000D0005714000857140008571400085714000854
:1000E0005714000857140008571400085714000844
:1000F0005714000857140008571400085714000834
:100100005714000857140008571400085714000823
:100110005714000857140008571400085714000813
:100120005714000857140008571400085714000803
:10013000DFF80CD003F072FE0048004745010008CC
:100140004805002000250024062000F0F6F948208C
:1001500000F00CFE00F034FA00F0FEFE00F06DF846
:1001600000F015F901F008F9002141F61F4001F0F7
:1001700003F841F61F411D2000F06AFE00BF0A4847
:1001800000F060FA00240CE0002507E004EB840195
:10019000064A02EB810000F0B3FA6D1C322DF5DB4C
:1001A000641C062CEBDAEFE70000002014000020AE
:1001B000704700BFFEE700BFFEE700BFFEE700BFDD
:1001C000FEE77047704770477047000008B501218F
:1001D000480501F070FE0121092001F05FFEC020FA
:1001E000ADF8000003208DF802001C208DF80300FC
:1001F0006946B94801F094F908BD1FB50020ADF873
:1002000004004BF6FF70ADF806000120ADF80800C1
:100210008002ADF80A000001ADF80C00AF48009074
:100220006946AF4801F0E3FA0121AD4801F05DFBFA
:100230000121AB4801F095FB1FBD10B5FFF7C6FFCC
:10024000FFF7DBFF10BD70B504460E46154600BF34
:100250004FF40031A24801F06FFC0028F8D10121D1
:100260009F4801F07EFB01219D4801F062FB00BF29
:100270009C499B4801F03EFC0028F9D00022214611
:10028000974801F0ACFB00BF9749954801F032FC5C
:100290000028F9D03146924801F09BFB00BF9249FB
:1002A000891C8F4801F026FC0028F8D029468C488C
:1002B00001F08FFB00BF8C49891C894801F01AFCB2
:1002C0000028F8D00121864801F03FFB70BD70B5D1
:1002D00004460D4600BF4FF40031814801F02CFC6C
:1002E0000028F8D101217E4801F023FB00BF7D49A1
:1002F0007B4801F0FFFB0028F9D000222146784816
:1003000001F06DFB00BF7849754801F0F3FB002850
:10031000F9D00121724801F0E8FA2946704801F04D
:1003200058FB00BF7049891C6D4801F0E3FB0028B1
:10033000F8D001216A4801F0FCFA00BF6949684819
:1003400001F0D8FB0028F9D001222146644801F0D1
:1003500046FB00BF6349491C614801F0CBFB002804
:10036000F8D000215E4801F0FCFA01215C4801F060
:10037000ECFA00BF5B493F31594801F0BBFB002854
:10038000F8D0574801F027FB0646304670BD10B53F
:100390000A2000F023FD00226B21D020FFF753FF3D
:1003A0000A2000F01BFD07221921D020FFF74BFF88
:1003B0000A2000F013FD06221A21D020FFF743FF88
:1003C0000A2000F00BFD18221B21D020FFF73BFF75
:1003D0000A2000F003FD00221C21D020FFF733FF8C
:1003E0000A2000F0FBFC02223721D020FFF72BFF70
:1003F0000A2000F0F3FC01220B211820FFF723FF55
:100400000A2000F0EBFC10220A211820FFF71BFF46
:100410000A2000F0E3FC11220A211820FFF713FF45
:100420000A2000F0DBFC2522F421EC20FFF70BFF73
:100430000A2000F0D3FC10BD70B504462146D02040
:10044000FFF745FF0546601CC1B2D020FFF73FFF14
:10045000064606EB052000B270BD2DE9F0410446CA
:1004600011220A211820FFF7EEFE012000F0B6FC51
:1004700000BF02211820FFF72AFF054605F0010002
:100480000028F6D021461820FFF721FF0746601C00
:10049000C1B21820FFF71BFF064607EB062000B28B
:1004A000BDE8F08170B504462522F421EC20FFF769
:1004B000CAFE052000F092FC2146EC20FFF707FF62
:1004C0000546601CC1B2EC20FFF701FF064606EBB3
:1004D000052000B270BD0000000C0140801A06002B
:1004E00000540040010003008200070000204F4933
:1004F0000861C8601420486100208861C86108460E
:10050000006840F00100086008464068484908401B
:100510004649486008460068464908404349086023
:100520000846006820F4802008600846406820F4EF
:10053000FE00486000208860704700B50246002336
:10054000FFF7D4FF3948006840F48030374908602D
:1005500000BF36480068400C0028FAD04FF4806095
:1005600032494860901EC2B20846406840EA824064
:1005700048600846406840F4803048602E48006873
:1005800040F032002C4908602848006840F0807034
:100590002649086000BF25480068400E0028FAD0B0
:1005A0002248406840F002002049486005E01F48AA
:1005B0004068C0F3870303F00303022BF7D100BDAB
:1005C00008B50121182001F069FC0120ADF80000F8
:1005D00010208DF8030003208DF8020069461748AB
:1005E00000F09EFF0620ADF8000048208DF80300C3
:1005F00003208DF802006946104800F091FF4FF487
:10060000E050ADF8000010208DF8030003208DF8B5
:1006100002006946094800F083FF0420ADF800009D
:100620006946074800F07CFF08BD0000001002404A
:100630000000FFF8FFFFF6FE00200240001001401E
:100640000014014070B50546002400204D49087093
:100650004EE0002445E04B4800782044142190FBF4
:10066000F1F201FB12002E5C304600F0C9FE00BF23
:100670000221454802F0D7FE0028F9D04FF48061EE
:10068000424800F0FCFF642000F08CFB4FF48061D6
:100690003E4800F0F2FFA4B94FF480513B4800F00F
:1006A000EEFF4FF40061394800F0E9FF4FF40061BC
:1006B000364800F0E2FF4FF48051344800F0DDFF8F
:1006C00009E04FF40061314800F0D9FF4FF40061B8
:1006D0002E4800F0D2FF42F2283000F063FB601C8D
:1006E000C4B2142CB7DB27480078401C2549087099
:1006F000244800781428ACDB00202249087070BD23
:1007000070B50546002400BF39E0285D00F078FE92
:1007100000BF02211C4802F086FE0028F9D04FF4E9
:1007200080611A4800F0ABFF4FF48061174800F079
:10073000A4FFA4B94FF48051144800F0A0FF4FF477
:100740000061124800F09BFF4FF400610F4800F079
:1007500094FF4FF480510D4800F08FFF09E04FF4F3
:1007600000610A4800F08BFF4FF40061074800F079
:1007700084FF4FF4167000F015FB601CC4B2142CFB
:10078000C3DB70BD8D00002000300140001001402F
:100790002DE9F04105460C46FE480168204603F06D
:1007A00029F80746FC4903F02BF80646FB48016888
:1007B000304602F0CDFFF9490860F9484168F94830
:1007C00003F018F80646F6488168304603F012F840
:1007D000F5490860F248C06880F000404860F04881
:1007E000C06880F000408860F048C8600868EA4946
:1007F00003F006F80646EA480168304602F0A8FF12
:10080000E7490860E8494868E34902F0F9FF06460D
:10081000E3484168304602F09BFFE1494860E24905
:100820008868DD4902F0ECFF0646DD488168304605
:1008300002F08EFFDA498860DB49C868D64902F0C9
:10084000DFFF0646D648C168304602F081FFD44932
:10085000C860D2480168284602F0CCFFD44908603D
:10086000CF4801684FF07E5002F0CAFFD1490860BE
:10087000CB4881684FF07E5002F0C2FFCE4908603D
:10088000CC4801684FF07E5002F0BAFF06464FF0A8
:100890007C5102F05DFFC949086008460168C548FF
:1008A000006802F0DFFFC6490860C4480168C2481A
:1008B000006802F0D7FFC3490860BE480068C2491B
:1008C0000860B74841684FF07E5002F099FFBF4979
:1008D0000860BD480168BA48006802F091FF06460A
:1008E000AF480168304602F088FFAD490860B7485C
:1008F0000168B348006802F083FF0646A8484168D3
:10090000304602F07AFFA6494860AF480168AD481A
:10091000006802F075FF0646A1488168304602F083
:100920006CFF9F498860A9480168A648006802F0EA
:1009300067FF06469A48C168304602F05EFF984954
:10094000C8609B4801689E48006802F059FF06464F
:1009500092480168304602F0FBFE904908609448D6
:1009600001689848006802F04BFF06468948016814
:10097000304602F0EDFE87490860084601682046CF
:1009800002F038FF92490860BDE8F0812DE9F04F90
:1009900089B090499048006802F02CFF04464FF05F
:1009A0008D4102F05FFF8D4908600846006803F042
:1009B0003CF980464FF03332894B03F038F88246D9
:1009C0000022884B03F033F80646874A874B03F032
:1009D000A0F8044603F03CF9804908604FF08241DA
:1009E0007B48006802F006FF80F00044204603F0D8
:1009F0001CF905464FF066327D4B03F08AF8074636
:100A000003F026F9724908600846006803F00DF902
:100A10008246784A784B03F00AF806460F46774834
:100A2000006803F002F9804632463B4602F058FF68
:100A3000044603F00DF9714908606548016867488C
:100A40000068FFF7A5FE6248006803F0EEF8CDE904
:100A50000201524801686148006802F0CBFE019033
:100A600003F0E3F806464FF03332654B02F0DFFF48
:100A70008046DDE9022302F033FF5E4A5E4BCDE99A
:100A8000040102F0D4FF04460D464448006803F018
:100A9000CCF822462B46CDE9060102F021FF824622
:100AA00003F0D6F83D49086009B0BDE8F08F70B595
:100AB000544801684648006802F0A2FE05465248C4
:100AC00001683648006802F09BFE0646294602F09F
:100AD0003FFE04464D480168204603F0DFF802D28D
:100AE0004A4804680CE04948006880F00045214607
:100AF000284603F0D3F803D24448006880F000444D
:100B00004348046070BD70B54148046805684149B8
:100B10002248006803F0C2F805D33F491F48006827
:100B200003F0B2F815D200213C4800F017FB082171
:100B30003B4800F013FB0021394800F00FFB042173
:100B4000374800F00BFB00220121364802F059F82B
:100B500070BD0021204603F0A1F806D2324801689A
:100B6000204602F0F5FD04460AE00021204603F08D
:100B70008BF805D22C480168204602F03BFE044663
:100B80000021284603F08AF856D2284801682846F2
:100B90004EE00000BC000020BC74133CA00000200C
:100BA000E00000206F12833A20010020A69B443B06
:100BB000C0000020C4000020C8000020CC0000209D
:100BC000D0000020D4000020D8000020DC0000204D
:100BD000900000200000C843980000209C000020E6
:100BE0003333F33F008066401F85EB51B81E094048
:100BF000666630403BDF4F8D976E823F9400002049
:100C00003333D33FA8000020A4000020AC00002014
:100C1000B00000200000F0410000F0C1002C0140B5
:100C20000034014000040040B4000020B80000205F
:100C300002F08EFD05460AE00021284603F024F864
:100C400005D246480168284602F0D4FD05464448CE
:100C50000168204603F022F802D2414804680CE003
:100C60003F48006880F000462146304603F016F801
:100C700003D23B48006880F00044394801682846A8
:100C800003F00CF802D2364805680CE034480068DE
:100C900080F000462946304603F000F803D2304881
:100CA000006880F000450021204602F0F7FF12D2D4
:100CB00000212C4800F01DFB04212A4800F03FFBD6
:100CC000204602F09EFFC0F5E15086B2314625482D
:100CD00002F016FA13E084F000440421214800F0E9
:100CE00008FB00211F4800F02AFB204602F089FF84
:100CF000C0F5E15086B231461A4802F0FFF90021F2
:100D0000284602F0CBFF12D20821164800F0F1FA73
:100D10000021154800F013FB284602F072FFC0F5D1
:100D2000E15086B23146104802F0E8F913E085F050
:100D3000004500210C4800F0DCFA0821094800F0C9
:100D4000FEFA284602F05DFFC0F5E15086B231465A
:100D5000044802F0D7F900BFFAE60000B80000200E
:100D6000AC00002000340140002C01404FF0E02195
:100D7000096921F004014FF0E0221161C21700EB74
:100D80005272C2F3C702304B1A701946097801EB50
:100D90004102C2EBC1114FF6FF7202EAC1012B4AB8
:100DA000118070470146284A12784A434FF0E023E9
:100DB0005A6100229A6101221A6100BF4FF0E022BD
:100DC000106900F001021AB100F48032002AF5D057
:100DD00000224FF0E0231A619A61704701461B4AD6
:100DE00012884A434FF0E0235A6100229A6101229F
:100DF0001A6100BF4FF0E022106900F001021AB141
:100E000000F48032002AF5D000224FF0E0231A616E
:100E10009A617047014605E0002001E0421CD0B213
:100E20000A28FBDB0A1EA1F10101F5D1704710B5BC
:100E3000044603E04FF47A70FFF7ECFF201EA4F1A4
:100E40000104F7D110BD0000F0000020F2000020E6
:100E50007FB505460C460121022001F02CF8ADF8C3
:100E60000850ADF804400020ADF80A00ADF80600C7
:100E700001A9334801F04EFB01221146304801F030
:100E8000C0FE1D208DF8000000208DF80100032019
:100E90008DF8020001208DF80300684602F0FFFA89
:100EA0000121274801F092FE7FBD10B501212448A1
:100EB00002F066F923480078401C22490870084671
:100EC0000078012814D13B20FFF7B6FA044602F05F
:100ED0008FFE1D4908604520FFF7AEFA044602F078
:100EE00087FE1A490860FFF751FDFFF7E0FD24E097
:100EF00014480078022819D115480078401C14497C
:100F0000087008460078212817DB002008700121AE
:100F1000104800F098FB20B901210E4800F0ADFB0D
:100F20000BE001210B4800F0AAFB06E00548007821
:100F3000032802D1002003490870FFF7E4FD10BD2B
:100F400000040040F40000209800002090000020E1
:100F5000F50000200010014000B585B0012144F2E9
:100F6000040000F09BFF4FF40070ADF81000182053
:100F70008DF8130003208DF8120004A9754800F0C5
:100F8000CFFA4FF48060ADF8100004208DF8130004
:100F900004A9704800F0C4FA4FF4165000900020E5
:100FA000ADF80400ADF80600ADF80800ADF80C008F
:100FB0000C20ADF80A006946674801F016F80121D7
:100FC000654801F09EF805B000BD70B504460D46B9
:100FD000E1B2614801F002F900BF5F48008800F00B
:100FE00080000028F9D0204670BDF0B503460D46BC
:100FF0001646002729460A2E03D0002008702846EE
:10100000F0BD33B9302001F8010B002008702846EC
:10101000F6E7002B03DA2D2001F8010B5B4242F2C8
:1010200010720DE093FBF2F404B937B104F1300013
:1010300001F8010B04FB123301270A2092FBF0F2A6
:10104000002AEFDC002008702846D9E70FB470B5FD
:1010500086B006460CA8019073E00B9800785C28D7
:101060001CD10B98401C0B9000786E2809D0722878
:101070000FD10D21304601F0B1F80B98401C0B90B8
:101080000BE00A21304601F0A9F80B98401C0B90A8
:1010900003E00B98401C0B9000BF4BE00B980078CE
:1010A000252840D10B98401C0B900078642818D05C
:1010B000732833D1019810C801900BE02178304695
:1010C00001F08CF800BF4021304601F0F5F800280F
:1010D000F9D0641C20780028F0D10B98401C0B90AC
:1010E00020E0019820C801900A2202A92846FFF7B3
:1010F0007CFF02AC0BE02178304601F06FF800BFB6
:101100004021304601F0D8F80028F9D0641C20783E
:101110000028F0D10B98401C0B9003E00B98401C6A
:101120000B9000BF06E00B9810F8011B0B903046A7
:1011300001F054F800BF4021304601F0BDF800280E
:10114000F9D00B980078002887D106B070BC5DF804
:1011500014FB0000000801400038014070B504464F
:101160000D4600222946204601F035FF002229467F
:10117000204601F03FFF70BD30B58DB005460C46EE
:1011800001211C2000F08AFE0121084600F086FEA5
:101190004FF4C070ADF8300018208DF833000320F4
:1011A0008DF832000CA96F4800F0BAF942F2030042
:1011B000ADF830000CA96C4800F0B2F94FF4E070C3
:1011C000ADF830000CA9694800F0AAF901214FF4EC
:1011D000205000F063FEADF82850ADF82440002008
:1011E000ADF82A00ADF8260009A9614801F092F98E
:1011F00009A9604801F08EF901215D4801F0E6FD82
:1012000001215C4801F0E2FD6020ADF814000120EE
:10121000ADF816000420ADF818000020ADF81A0053
:10122000ADF81C00ADF81E00ADF82000ADF82200AE
:1012300005A94F4801F0ABF905A94E4801F0A7F9FF
:1012400005A94C4801F0E5F905A94A4801F02EFA34
:101250000821474801F0EAFD0821464801F0E6FD73
:101260000821444801F0EBFD0821424801F0F4FD5B
:101270004FF40060ADF804004010ADF80600002007
:10128000ADF808006420ADF80A000020ADF80C00AD
:101290004FF40050ADF80E004000ADF8100001A969
:1012A000334801F053FC01A9324801F04FFC012101
:1012B0002F4801F08BFC01212D4801F093FC012106
:1012C0002C4801F083FC01212A4801F08BFC00210D
:1012D0002848FFF743FF04212648FFF73FFF082176
:1012E0002448FFF73BFF00212148FFF737FF0DB0EF
:1012F00030BD70B504460D4650222946204601F007
:1013000088FE01222946204601F065FE002229467A
:10131000204601F06FFE70BD70B504460D464022B8
:101320002946204601F075FE00222946204601F09C
:1013300052FE04222946204601F05CFE70BD70B5C5
:1013400004460D4660222946204601F062FE012235
:101350002946204601F03FFE04222946204601F09E
:1013600049FE70BD00080140000C01400010014022
:10137000002C01400034014008B5012141F2090070
:1013800000F08CFD0121294800F09BF9012108465D
:1013900000F097F93820ADF8000018208DF8030010
:1013A00003208DF802006946214800F0B9F80020BA
:1013B000204908804FF482704880002088800220F5
:1013C000C88001200881400248813820888100209F
:1013D000C88107200882184801F0FCFE0121164848
:1013E00001F09DFF08BD10B50446124884810146F6
:1013F000114801F0EFFE01210F4801F090FF10BDF0
:1014000070B50446002504E0681CC5B2C82D00DD97
:1014100005E00221084802F006F80028F4D000BFD9
:101420002146054801F0ACFF70BD0000000230000D
:10143000000C014030010020003001400648804788
:1014400006480047FEE7FEE7FEE7FEE7FEE7FEE7A9
:10145000FEE7FEE7FEE7FEE74F3600083101000831
:1014600010B50446CC48844208D10121042000F084
:101470002FFD0021042000F02BFD46E0C7488442E8
:1014800008D10121082000F023FD0021082000F0F0
:101490001FFD3AE0C248844208D10121102000F02B
:1014A00017FD0021102000F013FD2EE0BD488442FE
:1014B00008D10121202000F00BFD0021202000F0A8
:1014C00007FD22E0B848844208D10121402000F005
:1014D000FFFC0021402000F0FBFC16E0B3488442F2
:1014E00008D10121802000F0F3FC0021802000F0D1
:1014F000EFFC0AE0AE48844207D10121801500F0DC
:10150000E7FC0021A01500F0E3FC10BD10B501219F
:10151000084600F0DDFC0021012000F0D9FC10BDE0
:101520002DE9F0410246002500260020002300247A
:10153000002791F803C00CF00F0591F803C00CF0E0
:10154000100CBCF1000F03D091F802C04CEA050565
:1015500091F800C0BCF1000F31D0146800202BE0DE
:101560004FF0010C0CFA00F3B1F800C00CEA0306CE
:101570009E4220D183004FF00F0C0CFA03F7BC43BE
:1015800005FA03FC4CEA040491F803C0BCF1280FEF
:1015900006D14FF0010C0CFA00FCC2F814C00AE0AE
:1015A00091F803C0BCF1480F05D14FF0010C0CFAC3
:1015B00000FCC2F810C0401C0828D1D31460B1F858
:1015C00000C0BCF1FF0F34DD546800202EE000F1B4
:1015D000080C4FF0010808FA0CF3B1F800C00CEA4F
:1015E00003069E4221D183004FF00F0C0CFA03F743
:1015F000BC4305FA03FC4CEA040491F803C0BCF1B7
:10160000280F05D100F1080C08FA0CF8C2F8148074
:1016100091F803C0BCF1480F07D100F1080C4FF05E
:10162000010808FA0CF8C2F81080401C0828CED334
:101630005460BDE8F0814FF6FF7101800221817096
:101640000421C17070470246002093680B400BB123
:10165000012000E0002070470146886880B2704792
:1016600002460020D3680B400BB1012000E00020AF
:1016700070470146C86880B2704701617047416198
:1016800070470AB1016100E041617047C160704775
:101690004FF480320A43826181618261826982698A
:1016A000704702460020434B18684FF6807318407D
:1016B00040EA021008433F4B186070473E49C8613A
:1016C0007047F0B50A46002300240021002500F0F1
:1016D0000046B6F1004F02D1364EF16901E0354EB9
:1016E0007168C0F3034583B200F44016B6F5401F9D
:1016F00008D121F070612F4E766826F070662D4F6C
:101700007E6012E000F48016B6F5801F06D1032635
:1017100006FA05F4A14341F0706106E0460D36017A
:1017200003FA06F6B14341F0706122B1460D36016D
:1017300003FA06F6314300F00046B6F1004F02D13D
:101740001C4EF16101E01B4E7160F0BD30B500220E
:101750008B071C0F0F2303FA04F2164B08338C106F
:1017600053F824309343134C08348D1044F825303B
:1017700023468C1053F824308C07240F00FA04F40D
:1017800023430C4C08348D1044F8253030BD0A49F1
:10179000DC3108607047000000080140000C014087
:1017A000001001400014014000180140001C0140DD
:1017B00000200140000001400000204210B5044616
:1017C000F748844209D10121480500F08EFB002131
:1017D0004FF4001000F089FB08E00121880500F0BB
:1017E00084FB00214FF4800000F07FFB10BD2DE949
:1017F000F04385B004460D460026B1460427DFF8C5
:10180000A483A6884FF6C0700640684600F0D9FA57
:10181000DDF80880E448B8FBF0F01FFA80F946EAEA
:101820000906A68020884FF6FE7108402080002619
:10183000DE49286888420CD828684000B8FBF0F0E0
:1018400087B2042F00DA04273E4309F10100208407
:1018500027E0E8884BF6FF71884206D1286800EB44
:101860004000B8FBF0F087B209E0286800EBC00147
:1018700001EB0010B8FBF0F087B247F48047C7F3E4
:101880000B0008B947F0010747F4004006434FF446
:10189000967009FB00F04FF47A7190FBF1F0401C58
:1018A0002084A683208840F00100208026884FF6FF
:1018B000F5300640A8886989084306432680A88930
:1018C00029890843208105B0BDE8F08341F28831C1
:1018D0000160002181804BF6FF71C18000210181F0
:1018E00041814FF480418181704721B1028842F0EB
:1018F0000102028004E002884FF6FE731A40028063
:10190000704721B1828842F40062828004E08288BC
:101910004FF2FF731A408280704721B1828842F4EF
:101920008052828004E082884EF6FF731A408280E3
:10193000704721B1028842F48072028004E002887C
:101940004FF6FF631A400280704721B1028842F4CB
:101950000072028004E002884FF6FF531A400280B2
:10196000704721B1028842F48062028004E002885C
:101970004FF6FF331A40028070470A4600218189E2
:101980004FF60173194002F0FE031943818170473D
:1019900021B1828942F00102828104E082894FF6FE
:1019A000FE731A408281704721B1028842F04002E2
:1019B000028004E002884FF6BF731A40028070472D
:1019C0001AB183880B43838002E083888B43838032
:1019D0007047018270470146088AC0B2704712B151
:1019E00041F0010102E04FF6FE7319400182704799
:1019F00008B502460020009000920098084400902C
:101A00000098008808BD21B1028842F4004202809B
:101A100003E00288C2F30E0202807047B1F5006F46
:101A200004D1028842F40062028004E002884FF28E
:101A3000FF731A4002807047B1F5005F04D102883D
:101A400042F40052028004E002884DF6FF731A400F
:101A50000280704721B1028842F48052028004E083
:101A600002884EF6FF731A4002807047B1F5006F8E
:101A700004D1028842F40062028004E002884FF23E
:101A8000FF731A400280704721B1028842F02002A1
:101A9000028004E002884FF6DF731A40028070472C
:101AA0000146088B0012704721B1028842F01002F3
:101AB000028004E002884FF6EF731A4002807047FC
:101AC00021B9028842F08002028004E002884FF6C9
:101AD0007F731A4002807047B1F5804F05D0828B2A
:101AE0004BF6FF731A40828303E0828B42F48042FC
:101AF0008283704770B50246002400250023002031
:101B0000958A138B1B0445EA030626F07F4404EAFA
:101B100001068E4201D1012000E0002070BD10B509
:101B200001460020002300228B8A0A8B120443EA1C
:101B3000020424F07F4010BD0CB5024600200023B3
:101B40000193009300920B0F019321F07F41019BC1
:101B50001BB1009B1433009303E0090C009B183366
:101B60000093009B1B680B400BB1012000E000209C
:101B70000CBD002221F07F42D3438382704730B5F1
:101B8000024600200023948801F0E06504EA154332
:101B900021F07F41948A0C4054B14BB1012008E000
:101BA0000054004000127A0040420F00A08601005D
:101BB000002030BD002221F07F42D3438382704752
:101BC000DF48006840F00100DD49086008464068D1
:101BD000DC490840DA49486008460068DA490840AC
:101BE000D74908600846006820F48020086008464D
:101BF000406820F4FE0048604FF41F008860704782
:101C0000CF49096821F48031CD4A11601146096835
:101C100021F480211160B0F5803F03D0B0F5802F12
:101C20000ED106E0C649096841F48031C44A11600A
:101C300007E0C349096841F4A021C14A116000E0EE
:101C400000BF00BF704710B50146002200230020EE
:101C50004A11012A02D1BA4C236806E0022A02D1B5
:101C6000B74C236A01E0B64C636A01F01F020124FD
:101C700094401C400CB1012000E0002010BD38B59C
:101C8000002000900024002500BF3120FFF7DBFF7B
:101C900005460098401C00900098B0F5A06F01D058
:101CA000002DF2D03120FFF7CEFF08B1012400E073
:101CB0000024204638BD01460020A14A106820F0CB
:101CC000F80040EAC10010607047A0490860704702
:101CD000024600209A4B586820F47C1042EA010327
:101CE0001843974B586070479849086670470146FB
:101CF0000020934A506820F003000843506070476A
:101D00008F48406800F00C007047014600208C4A64
:101D1000506820F0F00008435060704701460020F2
:101D2000874A506820F4E0600843506070470146DD
:101D30000020834A506820F4605040EAC10050609F
:101D4000704729B17E4A527A02437D4B5A7204E0B1
:101D50007B4A527A82437A4B5A7270477B49D83118
:101D60000860704701460020754A506820F44040E2
:101D70000843506070470021714A20321170704A48
:101D800082F82010012802D004280AD104E00121A1
:101D90006B4A2032117005E00521694A203211702A
:101DA00000E000BF00BF70476949086070476449A0
:101DB000096A0143624A1162704765494439086003
:101DC000704730B500210022002400235C4D6D686F
:101DD00005F00C0121B1042905D0082923D105E023
:101DE0005C4D056022E05B4D05601FE0544D6D6861
:101DF00005F47012524D6D6805F48034022505EB30
:101E000092421CB9544D554305600BE04C4D6D6832
:101E100005F400351DB1504D5543056002E04D4DB0
:101E20005543056002E04B4D056000BF00BF444DC7
:101E30006D6805F0F0010909484D6B5C0568DD40EF
:101E400045603F4D6D6805F4E061090A434D6B5CE8
:101E50004568DD4085603A4D6D6805F46051C90AFA
:101E60003E4D6B5C4568DD40C560354D6D6805F4E1
:101E70004041890B3A4D6B5CC568B5FBF3F50561D4
:101E800030BD29B12E4A526902432D4B5A6104E0FC
:101E90002B4A526982432A4B5A61704729B1284A1A
:101EA00092690243264B9A6104E0254A9269824373
:101EB000234B9A61704729B1214AD2690243204BD2
:101EC000DA6104E01E4AD26982431D4BDA61704731
:101ED00029B11B4AD2680243194BDA6004E0184A60
:101EE000D2688243164BDA60704729B1144A1269EE
:101EF0000243134B1A6104E0114A12698243104BEA
:101F00001A61704712494039086070470F49C86428
:101F100070470B49C87170470948406A40F08070AB
:101F200007494862704701460020054A92680A4006
:101F30000AB1012000E00020704701498872704713
:101F4000001002400000FFF8FFFFF6FE00004242D2
:101F50008004424200127A0000093D00F600002091
:101F60000601002010B50446FB48844209D1012136
:101F70008803FFF7ADFF00214FF48040FFF7A8FF73
:101F800032E0F648844209D101214804FFF7ADFF51
:101F900000214FF40030FFF7A8FF25E0F04884420D
:101FA00009D101218804FFF7A0FF00214FF4802010
:101FB000FFF79BFF18E0EB48844209D10121C804D8
:101FC000FFF793FF00214FF40020FFF78EFF0BE097
:101FD000E548844208D101210805FFF786FF00216A
:101FE0004FF48010FFF781FF10BD2DE9F04786B058
:101FF00005460E460024A24600BFA1460027B08930
:1020000000B100BF2F462C8A4CF6FF700440F088C8
:1020100004432C82AC894EF6F3100440B088318919
:102020000843718908430443AC81AC8A4FF6FF40F2
:102030000440B0890443AC8201A8FFF7C2FEC64841
:10204000874202D1DDF810A001E0DDF80CA0A889DC
:1020500000F4004040B10AEBCA0000EB0A103168FE
:102060004900B0FBF1F807E00AEBCA0000EB0A10E8
:1020700031688900B0FBF1F86420B8FBF0F004018E
:102080002009642101FB1089A88900F4004040B1B7
:10209000322000EBC900B0FBF1F000F00700044370
:1020A00008E0322000EB09106421B0FBF1F000F0F1
:1020B0000F0004432C8106B0BDE8F0874FF41651A1
:1020C000016000218180C18001810C2141810021BA
:1020D0008181704710B502460020108A4FF2FF033D
:1020E00018400B884C8823438C882343CC88234397
:1020F0001843108210BD0021018041808180C18081
:10210000704721B1828942F40052828104E08289C1
:102110004DF6FF731A4082817047F0B503460024E4
:1021200000260025002040F66A17B94200D100BF02
:102130001846C1F3421401F01F06012707FA06F5FD
:10214000012C01D10C3004E0022C01D1103000E050
:1021500014301AB107682F43076002E00768AF43E5
:102160000760F0BD1AB1838A0B43838202E0838A41
:102170008B4383827047028A4FF6F0731A400282C3
:10218000028A0A430282704782894FF2FF731A4023
:10219000828182890A438281704721B1828942F01B
:1021A0000202828104E082894FF6FD731A40828127
:1021B0007047028A4FF6DF731A400282028A0A438E
:1021C0000282704721B1028A42F48042028204E016
:1021D000028A4BF6FF731A4002827047C1F308026D
:1021E0008280704701468888C0F308007047818963
:1021F00041F0010181817047028BD2B20283028BD0
:1022000042EA012202837047028B02F47F4202837A
:10221000028B0A430283704721B1828A42F0200276
:10222000828204E0828A4FF6DF731A40828270470E
:1022300021B1828A42F01002828204E0828A4FF643
:10224000EF731A408282704721B1828A42F00802FD
:10225000828204E0828A4FF6F7731A4082827047C6
:1022600021B1828942F40042828103E08289C2F373
:102270000E028281704721B1828A42F4006282821A
:1022800004E0828A4FF2FF731A4082827047828A8A
:102290004FF6FB731A408282828A0A438282704719
:1022A00021B1828A42F00202828204E0828A4FF6E1
:1022B000FD731A408282704702460020B1F5007F0C
:1022C00000D100BF13880B400BB1012000E00020BB
:1022D000704701F40072B2F5007F00D100BFCA431D
:1022E0000280704770B502460024002300250020BC
:1022F00040F66A16B14200D100BFC1F3421501F0A9
:102300001F03012606FA03F3012D02D196893340FB
:1023100006E0022D02D1168A334001E0968A33404E
:102320000C12012606FA04F41688344013B10CB1DD
:10233000012000E0002070BD10B50022002340F60F
:102340006A14A14200D100BF0A1201249440A3B232
:10235000DC43048010BD0000003801400044004010
:1023600000480040004C00400050004010B50446BA
:10237000FE48844208D10121C014FFF7A9FD0021C5
:10238000E014FFF7A5FDC4E0B4F1804F08D10121AE
:102390000846FFF7AAFD00210120FFF7A6FDB8E0DF
:1023A000F348844208D101210220FFF79EFD00215D
:1023B0000220FFF79AFDACE0EE48844208D10121EB
:1023C0000420FFF792FD00210420FFF78EFDA0E01E
:1023D000E948844208D101210820FFF786FD002149
:1023E0000820FFF782FD94E0E448844208D10121EF
:1023F0001020FFF77AFD00211020FFF776FD88E01E
:10240000DF48844208D101212020FFF76EFD002122
:102410002020FFF76AFD7CE0DA48844208D10121E0
:102420004014FFF755FD00216014FFF751FD70E0E7
:10243000D548844209D10121C804FFF749FD002194
:102440004FF40020FFF744FD63E0D048844209D1F7
:1024500001210805FFF73CFD00214FF48010FFF734
:1024600037FD56E0CA48844209D101214805FFF7EB
:102470002FFD00214FF40010FFF72AFD49E0C54869
:10248000844208D101214020FFF72FFD0021402088
:10249000FFF72BFD3DE0C048844208D10121802098
:1024A000FFF723FD00218020FFF71FFD31E0BB482F
:1024B000844208D101218015FFF717FD0021A015E6
:1024C000FFF713FD25E0B648844209D10121080435
:1024D000FFF7FEFC00214FF48030FFF7F9FC18E015
:1024E000B048844209D101214804FFF7F1FC0021E2
:1024F0004FF40030FFF7ECFC0BE0AB48844208D10E
:1025000001218804FFF7E4FC00214FF48020FFF74D
:10251000DFFC10BD00220288944B98420ED0994BEC
:1025200098420BD0B0F1804F08D0914B984205D023
:10253000904B984202D0904B984204D14FF68F7343
:102540001A404B881A438D4B984207D08C4B9842C7
:1025500004D04FF6FF431A40CB881A4302808B8881
:1025600083850B880385814B98420BD0854B98421D
:1025700008D08B4B984205D08A4B984202D08A4BA8
:10258000984201D10B7A038601238382704770B58C
:10259000002400220023058C4FF6FE76354005848A
:1025A000028C8388048B4FF68F752C40B51E2C400F
:1025B0000D882C43751E2A400D892A434D882A43D5
:1025C0006A4DA8420BD06F4DA84208D0744DA84266
:1025D00005D0744DA84202D0734DA84213D14FF6D6
:1025E000F7752A404D892A434FF6FB752A408D889E
:1025F0002A434FF6FF652B404FF6FF552B408D8940
:102600002B43CD892B4383800483CD888586028428
:1026100070BD70B5002400220023058C4FF6EF76C4
:1026200035400584028C8388048B48F6FF752C4066
:102630004FF6FF452C400D884FF6FF7606EA05253C
:102640002C434FF6DF752A400D8906EA05152A430B
:102650004D8806EA05152A43444DA84202D0494D4B
:10266000A8421DD14FF67F752A404D894FF6FF765F
:1026700006EA05152A434FF6BF752A408D8806EAFB
:1026800005152A434FF6FF352B404FF2FF752B40BF
:102690008D8906EA85052B43CD8906EA85052B43FE
:1026A00083800483CD880587028470BD70B50024C3
:1026B00000220023058C4FF6FF6635400584028C0E
:1026C0008388848B4FF68F752C404FF6FC752C4019
:1026D0000D882C434FF6FF552A400D894FF6FF76A3
:1026E00006EA05252A434D8806EA05252A431F4D9B
:1026F000A84202D0234DA8421DD14FF2FF752A40B7
:102700004D894FF6FF7606EA05252A434FF6FF3539
:102710002A408D8806EA05252A434EF6FF752B4090
:102720004DF6FF752B408D8906EA05152B43CD89A3
:1027300006EA05152B4383808483CD888587028430
:1027400070BD70B5002200230024058C4EF6FF7684
:1027500035400584038C8488828B48F6FF752A40B7
:102760004FF6FF452A400D8820E00000002C014074
:102770000004004000080040000C00400010004031
:102780000014004000340140004C01400050014062
:102790000054014000180040001C00400020004090
:1027A0000040014000440140004801404FF6FF76E0
:1027B00006EA05252A434DF6FF752B400D8906EAEA
:1027C00005352B434D8806EA05352B43FA4DA842C3
:1027D00002D0FA4DA84208D14BF6FF752C408D89E6
:1027E0004FF6FF7606EA85152C4384808283CD88D8
:1027F000A0F84050038470BD828B4FF2FF331A4023
:102800008283828B4FF6FF7303EA01231A4382838C
:102810007047F0B50C461546002200210026078CB3
:102820004EF6FF7C07EA0C070784828B018C4FF67B
:10283000FF7707EA043640F6FF473A404FF6FF7746
:1028400007EA05273A434FF6FF7707EA03373A438B
:10285000D94FB8420ED0D94FB8420BD0B0F1804F0B
:1028600008D0D74FB84205D0D64FB84202D0D64F85
:10287000B84206D14DF6FF77394046F480573943C8
:1028800005E047F6FF57394044F4805739438283C7
:102890000184F0BD828B4FF6F3731A408283828BE2
:1028A0000A4382837047F0B50C461546002200218A
:1028B0000026078C4FF6FF6C07EA0C070784828B13
:1028C000018C4FF6FF7707EA04264FF60C773A4063
:1028D0004FF6FF7707EA03172F433A43B64FB84244
:1028E0000ED0B64FB8420BD0B0F1804F08D0B44FE5
:1028F000B84205D0B34FB84202D0B34FB84206D168
:102900004FF6FF57394046F48077394305E04FF2E0
:10291000FF57394044F48077394382830184F0BD06
:10292000028B4FF2FF331A400283028B4FF6FF7384
:1029300003EA01231A4302837047F0B50C4615469B
:10294000002200210026078C4FF6EF7C07EA0C07D7
:102950000784028B018C4FF6FF7707EA041640F6D6
:10296000FF473A404FF6FF7707EA03373A434FF6FF
:10297000FF7707EA05273A438F4FB8420ED08F4FB3
:10298000B8420BD0B0F1804F08D08D4FB84205D07F
:102990008C4FB84202D08C4FB84206D14FF6DF7749
:1029A000394046F01007394305E04FF65F7739406C
:1029B00044F01007394302830184F0BD028B4FF6C7
:1029C000F3731A400283028B0A4302837047F0B507
:1029D0000C46154600220021068C4FF6FE773E403D
:1029E0000684028B018C4FF60C7632407E1C06EA80
:1029F00003162E433243704EB0420ED06F4EB0429B
:102A00000BD0B0F1804F08D06D4EB04205D06D4E66
:102A1000B04202D06C4EB04206D14FF6FD76314046
:102A200044F00106314305E04FF6F576314044F0BD
:102A30000106314302830184F0BD70B505460C46A2
:102A40005D4885420ED05D4885420BD0B5F1804F80
:102A500008D05B48854205D05A48854202D05A4882
:102A6000854200D100E000BF208850B92389A288A8
:102A700061882846FFF7ABFFE1882846FFF79EFFF5
:102A800025E0208804280AD12389A2886188284665
:102A9000FFF753FFE1882846FFF742FF17E0208841
:102AA00008280AD12389A28861882846FFF7FBFEFF
:102AB000E1882846FFF7EEFE09E02389A2886188B5
:102AC0002846FFF7A6FEE1882846FFF795FE70BD71
:102AD0002DE9F04105460C4600260127608808B91B
:102AE000022600E00026A088012801D1022700E08C
:102AF00001272088A0B92389A28861882846FFF78A
:102B000066FFE1882846FFF759FF23893A46314698
:102B10002846FFF712FFE1882846FFF701FF13E080
:102B20002389A28861882846FFF707FFE1882846A5
:102B3000FFF7F6FE23893A4631462846FFF747FF5E
:102B4000E1882846FFF73AFFBDE8F0810A884B8804
:102B50001A438B881A43CB881A430B891A434B8933
:102B60001A438B891A43A0F8442070474FF6FF712F
:102B7000818000210180C180418001727047002165
:102B8000018041808180C180018141818181C18139
:102B90007047002101804180012181800021C18096
:102BA000018170470021018041808180C1800181C5
:102BB0004181818170470000002C014000340140B8
:102BC0000004004000080040000C004021B10288D1
:102BD00042F00102028004E002884FF6FE731A40C0
:102BE0000280704731B1B0F8442042F40042A0F8AE
:102BF000442005E0B0F84420C2F30E02A0F84420BF
:102C000070471AB183890B43838102E083898B4328
:102C1000838170478182704741EA0203A0F84830FF
:102C200070471AB183890B43838102E083898B4308
:102C30008381704701894FF6F87211400181704716
:102C40000A46002101894FF68F7319401143018113
:102C5000704730B504460D4629462046FFF7F0FF81
:102C6000208940F00700208130BD2DE9F041044665
:102C70000D4616461F46602D06D13B4601223146C1
:102C80002046FFF75AFE05E03B460122314620462A
:102C9000FFF79DFE29462046FFF7D2FF208940F02E
:102CA00007002081BDE8F08130B50C460021018984
:102CB000C9B24FF6FF7505EA03251543254329439D
:102CC000018130BD2DE9F04105460E461746984674
:102CD000002443463A4631462846FFF7E5FF2C8953
:102CE0004FF6F870044044F007044FF68F7004402C
:102CF00044F070042C81BDE8F081F0B504460D4627
:102D000016461F463B46324629462046FFF7CCFF73
:102D1000208940F480402081F0BD01858282704787
:102D20000A46002101884FF68F7319401143018034
:102D30007047F0B50C4615461E46002100220023C0
:102D40000189028B038C4FF6F877394021434FF607
:102D5000FC473A4040F201173A434FF6DD773B40DB
:102D60004FF6FF7707EA06172F433B4301810283A3
:102D70000384F0BD0A460021018B4FF68F73194082
:102D80001143018370470A460021018B48F6FF7307
:102D900019404FF6FF7303EA02231943018370477A
:102DA0000A460021818B4FF68F73194011438183AE
:102DB00070470A460021818B48F6FF7319404FF691
:102DC000FF7303EA022319438183704721B102880C
:102DD00042F08002028004E002884FF67F731A40BE
:102DE0000280704721B1828842F00402828004E0B0
:102DF00082884FF6FB731A408280704721B1828827
:102E000042F00802828004E082884FF6F7731A408D
:102E10008280704721B1828842F00102828004E002
:102E200082884FF6FE731A40828070470A4600215E
:102E3000018B4FF6F77319401143018370470A461F
:102E40000021018B4FF2FF7319404FF6FF7303EA25
:102E500002231943018370470A460021818B4FF6F4
:102E6000F77319401143818370470A460021818B13
:102E70004FF2FF7319404FF6FF7303EA0223194321
:102E8000818370470A460021018B4FF6FB7319407E
:102E90001143018370470A460021018B4FF6FF332F
:102EA00019404FF6FF7303EA022319430183704769
:102EB0000A460021818B4FF6FB7319401143818331
:102EC00070470A460021818B4FF6FF3319404FF6B9
:102ED000FF7303EA02231943818370470A460021E6
:102EE000018B4FF67F7319401143018370470A46E7
:102EF0000021018BC1F30E014FF6FF7303EA022399
:102F00001943018370470A460021818B4FF67F7376
:102F100019401143818370470A460021818BC1F318
:102F20000E014FF6FF7303EA0223194381837047B2
:102F30000A460021018C4FF6FD73194011430184AC
:102F400070470A460021018C4FF6F7731940114370
:102F5000018470470A460021018C4FF6DF73194047
:102F60004FF6FF7303EA02131943018470470A46C0
:102F70000021018C4FF67F7319404FF6FF7303EA6F
:102F800002131943018470470A460021018C4FF651
:102F9000FF5319404FF6FF7303EA022319430184DC
:102FA00070470A460021018C4FF2FF7319404FF61B
:102FB000FF7303EA02231943018470470A46002184
:102FC000018C4DF6FF7319404FF6FF7303EA02338D
:102FD00019430184704730B5002301248C40A3B20B
:102FE000048C9C430484048C02FA01F5ADB22C439A
:102FF000048430BD30B5002304248C40A3B2048C7B
:103000009C430484048C02FA01F5ADB22C43048481
:1030100030BD70B503460020002418461830012545
:103020008D40ACB21D8CA5431D8409B1082909D17E
:1030300000EB6100056825F0700505600568154323
:1030400005600EE00D1FC5F34E052844056825F404
:10305000E045056005684FF6FF7606EA022635432F
:10306000056070BD21B1028842F00202028004E0D6
:1030700002884FF6FD731A400280704721B1028822
:1030800042F00402028004E002884FF6FB731A400B
:103090000280704721B1828842F08002828004E081
:1030A00082884FF67F731A408280704702884FF6FD
:1030B000F7731A40028002880A43028070478288B0
:1030C0004FF68F731A40828082880A43828070474D
:1030D00002894FF6F8731A40028102890A4302817D
:1030E000704702894FF67F731A40028102890A43B2
:1030F000028170478184704781857047818670475F
:103100000187704781877047A0F840107047028898
:103110004FF6FF431A40028002880A43028070473C
:103120000146888E70470146088F70470146888F98
:1031300070470146B1F8400070470146888C7047DF
:103140000146088D704702460020138A0B400BB1E0
:10315000012000E000207047CA430282704730B56A
:103160000246002000230024158A05EA0103958900
:1031700005EA010413B10CB1012000E0002030BDCC
:10318000CA4302827047000010B50446BE4884421C
:1031900008D101218014FEF79BFE0021A014FEF748
:1031A00097FE16E0B948844208D101210014FEF7C9
:1031B0009CFE00212014FEF798FE0AE0B4488442E9
:1031C00007D10121C013FEF790FE0021E013FEF7A6
:1031D0008CFE10BD10B50022028802F441520B880B
:1031E0004C8823438C882343CC8823430C89234376
:1031F0004C8923438C892343CC8923431A4302807F
:10320000838B4FF2FF74234083830B8A038210BDAC
:103210002DE9F04F85B005460C464FF00009022716
:103220004FF000084FF0010B0026B246A88B4FF27A
:1032300040010840A88302202884B5F81C90A068AB
:10324000022801D100BF38E0A08810B94FF0010B6F
:1032500001E04FF0020B8D48854200D100E000BF35
:103260006846FEF7AEFDDDF800A0E088B0F5007F0F
:103270000AD14FEA1A2000EB80004000A168B0FBA1
:10328000F1F0401D86B20BE04FEA4B10BAFBF0F0B4
:1032900000EB80004000A168B0FBF1F0401D86B259
:1032A0000A20B6FBF0F606F00108A6EB0800C0F312
:1032B0004F074FF6FF7000EA0828022F01DBFF2FAF
:1032C00002DD02274FF00008E08840EA080038439A
:1032D0002884A088A189084361880843218808437D
:1032E00040F4006040EA0909A5F81C9005B0BDE86B
:1032F000F08F0021018041808180C1800181418166
:103300008181C181072101827047002101804180B4
:103310008180C1800221816000218181704721B1BB
:10332000028842F04002028004E002884FF6BF7338
:103330001A400280704721B1828B42F480628283FE
:1033400004E0828B4FF6FF331A408283704730B51A
:10335000002400230C110125A540ABB21AB18588C9
:103360001D43858002E085889D43858030BD1AB16C
:1033700083880B43838002E083888B43838070477C
:10338000818170470146888970474FF6FF629142FC
:1033900004D0028842F48072028004E002884FF672
:1033A000FF631A400280704721B1828842F0040214
:1033B000828004E082884FF6FB731A408280704757
:1033C00002884FF2FF731A40028002880A4302808B
:1033D0007047018841F480510180704721B1028813
:1033E00042F40052028004E002884DF6FF731A4056
:1033F0000280704702460020012901D0108B00E0B6
:10340000908A70470146088A7047B1F5804F04D111
:10341000028842F48042028004E002884BF6FF7387
:103420001A40028070470246002013890B400BB1FE
:10343000012000E000207047CA4302817047F0B5C8
:103440000246002000240023002501F00F0701267A
:10345000BE40B4B20B1101269E40B3B2968806EA74
:1034600003051689264016B10DB1012000E00020A9
:10347000F0BD10B5002201F00F040123A3409AB261
:10348000D343038110BD00000030014000380040EC
:10349000003C004031490143314A1160704770B52A
:1034A000002100230F22C47804B32D4C246804F4B7
:1034B000E064C4F5E064210AC1F10403CA40447821
:1034C00004FA03F18478144021430901254C06785D
:1034D000A155047804F01F050124AC4005786D1156
:1034E000AD0005F1E025C5F8004109E0047804F0DD
:1034F0001F050124AC401C4D0678761145F8264086
:1035000070BD1A4A0A400243154B1B1F1A607047D0
:1035100039B1134A121D12680243114B1B1D1A6068
:1035200006E00F4A121D126882430D4B1B1D1A60E4
:103530007047042808D14FF0E021096941F00401E7
:103540004FF0E022116107E04FF0E021096921F01E
:1035500004014FF0E0221161704700000000FA05FD
:103560000CED00E000E400E080E100E080FFFF1FE0
:103570000CB50020019000906C48006840F4803049
:103580006A49086000BF6948006800F40030009094
:103590000198401C0190009818B90198B0F5A06FEF
:1035A000F1D16248006800F4003010B101200090B1
:1035B00001E0002000900098012843D15C48006899
:1035C00040F010005A4908600846006820F00300E7
:1035D00008600846006840F00200086053484068F0
:1035E000524948600846406848600846406840F4D0
:1035F000806048600846406820F47C1048600846B7
:10360000406840F4E81048600846006840F0807068
:10361000086000BF4548006800F000700028F9D03D
:103620004248406820F0030040494860084640682E
:1036300040F00200486000BF3C48406800F00C00C9
:103640000828F9D10CBD10B5FFF792FF10BD10B5D9
:103650003648006840F00100344908600846406878
:1036600034490840314948600846006832490840FA
:103670002E4908600846006820F48020086008464B
:10368000406820F4FE0048604FF41F008860FFF798
:10369000DAFF4FF000602949086010BD10B5002125
:1036A00000200022214B5B6803F00C0121B10429AA
:1036B00006D0082928D107E0214B224C236027E0BF
:1036C0001F4B204C236023E0184B5B6803F4701001
:1036D000164B5B6803F48032022303EB904022B95F
:1036E000194B4343174C23600DE0104B5B6803F408
:1036F000003323B1144B4343124C236003E0104BBF
:103700004343104C236003E00D4B0E4C236000BF7D
:1037100000BF064B5B68C3F303130C4CE15C094B21
:103720001B68CB40074C236010BD00000010024016
:10373000002002400000FFF8FFFFF6FE08ED00E069
:1037400000127A000C01002000093D001001002049
:10375000F0B480EA0102D40F4200B2EB410F02D272
:103760000246084611464A0042D0C30DDDB2C1F3FD
:10377000C752AD1A202D35DAC1F3160141F400020B
:1037800004B15242C5F1200602FA06F12A41104462
:10379000B3EBD05F23D0C4B1012DA0EBC35009DC43
:1037A000F0BC4FF0004202EAC352DBB200F5000069
:1037B00000F0A8BA400000F1807000EBC350A0F107
:1037C000807040EAD170490009E0490841EAC071BF
:1037D000A0EBC35000F50000400800EBC350F0BC64
:1037E00000F087BA6142012202EB4101001BF6E7BB
:1037F000F0BC704781F00041AAE780F00040A7E7E5
:1038000080EA010210B502F00043400022D04A00D5
:103810001FD0010E01EB1261C0F35600C2F3560235
:1038200040F4000042F40002A0FB022000047F39B3
:10383000140400D0401C50EA124001D44000491E3C
:10384000C2B20C0604EBD010401C4008802A02D003
:1038500003E0002010BD20F00100002900DA002064
:10386000184310BD30B480EA010202F0004530F088
:10387000004221F0004013D090B1C30DD40DC2F32B
:103880001601C0F31600E41A41F4000140F40002EE
:103890007D34914201D3641C00E04900002C02DA1F
:1038A00030BC002070474FF400000023914201D348
:1038B000891A034340084FEA4101F7D151B19142BF
:1038C00002D14FF0004105E002D24FF0010101E0CA
:1038D0006FF0010103EBC450284430BC00F009BA7A
:1038E0002DE9FE4F804681EA0300C00F0C46009090
:1038F00021F0004123F00045B8EB0200A94105D2B8
:103900004046214690461C460B46024623F00040A6
:10391000104347D0270DC7F30A00C3F30A510290A2
:10392000401A019040286BDAC3F3130040F4801B67
:103930000098924620B10023D2EB030A63EB0B0BF5
:1039400001985946C0F14002504600F0B1F90646D0
:103950000D4650465946019A00F0B9F910EB08009F
:103960006141002487EA115284EAE7731A4340D088
:10397000009A62B3019A012A4FEA075215DC001B34
:1039800061EB02014FF0004202EA0752CDE900422A
:10399000001C41F5801132462B4600F0F0F903B0CF
:1039A000BDE8F08F40462146F9E7001B61EB0201BC
:1039B000001C41F5801300185B412018A2F5001788
:1039C00047EB030140EAD570B6196D4111E06D086F
:1039D0004FEA360645EAC0754FEA0752001B61EB15
:1039E0000201001C41F5801149084FEA300000191E
:1039F000514132462B4603B0BDE8F04F00F0B0B95C
:103A00000098012240000023D0EB020263EBE07338
:103A1000009821464FEAE074B8EB000061EB040126
:103A2000E9E783F000435BE781F0004158E72DE9C7
:103A3000FE4F81EA030404F0004421F000410094A9
:103A40004FF0000B23F0004350EA01045ED052EA2D
:103A500003045BD0C3F30A54C1F30A552C44A4F207
:103A6000F3340194A0FB0254C1F3130141F480111B
:103A7000C3F3130343F4801301FB024400FB034E22
:103A8000840A970A44EA815447EA8357A4FB0768EB
:103A900002958D0A05FB07854FEA932C04FB0C5415
:103AA0002705029D4FEA065847EA1637B5EB080589
:103AB0006EEB070C870E920E47EA811742EA8312DB
:103AC000A7FB0201B6EB0B0164EB00042B0D43EAEC
:103AD0000C335E1844EB1C50DA465146E7FB0201FA
:103AE000C5F313044FEA0B3343EA14534FEA04328D
:103AF000019C43EA0603A4F10C040294009CCDE966
:103B000000B400F03CF903B0BDE8F08F002001469E
:103B1000F9E72DE9F04D81EA030404F0004B21F0B0
:103B2000004514464FF0000A23F0004150EA050218
:103B300020D054EA01021DD0C5F30A570246C5F34E
:103B40001303C1F31300C1F30A5640F4801543F484
:103B50008013A7EB0608101BD64608F2FD3873EB5E
:103B6000050002D308F1010801E092185B41B8F1A9
:103B7000000F03DA00200146BDE8F08D00204FF46D
:103B80008011064684460EE0171B73EB050705D32C
:103B9000121B63EB050306434CEA010C49084FEA8C
:103BA000300092185B4150EA0107EDD152EA030060
:103BB00012D082EA040083EA0501084305D0101BF5
:103BC000AB4106D20122002306E000224FF0004361
:103BD00002E06FF0010253101AEB06004CEB0851A3
:103BE00010EB0A0041EB0B01BDE8F04D00F0B8B856
:103BF000C10F80EAE0700844CA079623002100F054
:103C000081B820F00040C10DC0F3160040F4000060
:103C10007F2901DA00207047962903DCC1F1960163
:103C2000C840704796398840704700F0004230F035
:103C300000400AD0C10D01F56071C0F3160042EAE0
:103C40000151C208400711437047002001467047E8
:103C500001F0004330B421F0004150EA010206D0E7
:103C60000A0DA2F56072C1F31301002A02DC30BC18
:103C700000207047440F44EAC104C100E01830BC82
:103C800000EBC25000F035B8002801DBC0F1004065
:103C9000002901DBC1F1004181427047002801DBAE
:103CA000C0F10040002901DBC1F1004188427047AA
:103CB000202A04DB203A00FA02F1002070479140EC
:103CC000C2F1200320FA03F3194390407047202AE1
:103CD00006DBCB17203A41FA02F043EAE07306E034
:103CE00041FA02F3D040C2F1200291400843194644
:103CF00070470029A8BF7047401C490008BF20F04A
:103D00000100704710B4B0FA80FC00FA0CF050EAE1
:103D1000010404BF10BC704749B1CCF1200421FA62
:103D200004F411FA0CF118BF012121430843A3EB5D
:103D30000C01CB1D4FEA00614FEA102042BF00206A
:103D400010BC704700EBC35010440029A4BF10BC46
:103D50007047401C490008BF20F0010010BC7047AC
:103D600010B5141E73F1000408DA401C41F1000183
:103D700092185B411A4301D120F0010010BD2DE9DA
:103D8000F04D92469B4611B1B1FA81F202E0B0FAD1
:103D900080F220329046FFF78BFF04460F4640EA40
:103DA0000A0041EA0B0153465A46084313D0114614
:103DB00053EA010019D0C8F14002504600F040F823
:103DC00005460E46504659464246FFF771FF0843E6
:103DD00005D0012004E020463946BDE8F08D0020E2
:103DE000054346EAE0762C4337430A986305E40A24
:103DF000A0EB08000022FD0A44EA47540A3002D52D
:103E000000200146E9E7010510196941DDE908458F
:103E100000196941BDE8F04DA2E70000064C074DCE
:103E200006E0E06840F0010394E80700984710348A
:103E3000AC42F6D3FCF780F9803E0008A03E0008B3
:103E4000202A04DB203A21FA02F00021704721FAEF
:103E500002F3D040C2F12002914008431946704756
:103E600002E008C8121F08C1002AFAD17047704743
:103E7000002001E001C1121F002AFBD170470000A1
:103E8000A03E00080000002020010000603E000865
:103E9000C03F00082001002028040000703E0008F8
:103EA000FF00000000000000000000000000000013
:103EB00000000000002030381412111109796969DE
:103EC0000911131C0000000000122A1C007E221C95
:103ED000021E221C001E3018301E000000000000D0
:103EE00000007F111173000E11117F00000000000F
:103EF000000C107F100C003E411C00000E151555E3
:103F0000350E00000000013E4642423C0000000029
:103F10000E794A5A42000000027E220000003C4214
:103F200042423C007E0810207E000000000000009D
:103F30000000000000000000000000000000000081
:103F400000000000000020429A99993E00409C45E4
:103F50000000000000002A440080544400000000DB
:103F60000000000000000000000000000000000051
:103F70000000000000000000000000000000000041
:103F80000000803F00000000000000000000803FB3
:103F90000000000000000000000001020304010214
:103FA00003040607080902040608000000A24A04E8
:103FB00000000000000000000102030406070809D9
:0400000508000131BD
:00000001FF
