:020000040800F2
:10000000E80600203D1E00082D0200082F0200080F
:1000100033020008370200083B020008000000001D
:100020000000000000000000000000003F02000887
:1000300041020008000000004302000845020008D9
:10004000571E0008571E0008571E0008571E0008BC
:10005000571E0008571E0008571E0008571E0008AC
:10006000571E0008571E0008571E0008571E00089C
:10007000571E0008571E0008571E0008571E00088C
:10008000571E0008571E0008571E0008571E00087C
:10009000571E0008571E0008571E0008571E00086C
:1000A000571E0008571E0008571E0008571E00085C
:1000B000571E0008BF140008571E0008571E0008EE
:1000C000571E0008571E0008571E0008571E00083C
:1000D000571E0008571E0008B1100008571E0008E0
:1000E000571E0008571E0008571E0008571E00081C
:1000F000571E0008571E0008571E0008571E00080C
:10010000571E0008571E0008571E0008571E0008FB
:10011000571E0008571E0008571E0008571E0008EB
:10012000571E0008571E0008571E0008571E0008DB
:10013000DFF80CD004F0E8FB00480047510100084C
:10014000E806002030BF72B662B680F308887047B8
:100150000024002500BF00BF062001F013FE482048
:1001600001F00EF900F000FA01F09AFA4FF416507F
:1001700001F018F8C82001F064F900F09CF800F0D4
:1001800044F901F09DFC002141F61F4001F098FB6D
:1001900041F61F411D2001F065F900BF20480068AD
:1001A00030B1012808D0022815D0032836D122E02A
:1001B0001C4800F013FA31E0002409E0002504E0B7
:1001C0002146194800F090FA6D1C142DF8DB641CD0
:1001D000142CF3DB22E000240AE0142505E021467C
:1001E0001148143000F080FA6D1E002DF7DC641CFD
:1001F000142CF2DB12E000240DE0002508E0A11C25
:1002000001EB8101084A02EB810000F02BFA6D1C22
:100210001E2DF4DB641C042CEFDB00BFBEE70000E6
:10022000F40000200000002014000020704700BFF0
:10023000FEE700BFFEE700BFFEE700BFFEE7704736
:10024000704770477047000008B50121480502F06B
:1002500032FB0121092002F021FBC020ADF8000093
:1002600003208DF802001C208DF803006946B94870
:1002700001F056FE08BD1FB50020ADF804004BF696
:10028000FF70ADF806000120ADF808008002ADF85F
:100290000A000001ADF80C00AF4800906946AF4875
:1002A00001F0A5FF0121AD4802F01FF80121AB4884
:1002B00002F057F81FBD10B5FFF7C6FFFFF7DBFFD1
:1002C00010BD70B504460E46154600BF4FF4003110
:1002D000A24802F031F90028F8D101219F4802F02C
:1002E00040F801219D4802F024F800BF9C499B483A
:1002F00002F000F90028F9D000222146974802F0C8
:100300006EF800BF9749954802F0F4F80028F9D03C
:100310003146924802F05DF800BF9249891C8F482F
:1003200002F0E8F80028F8D029468C4802F051F88D
:1003300000BF8C49891C894802F0DCF80028F8D0FD
:100340000121864802F001F870BD70B504460D46E3
:1003500000BF4FF40031814802F0EEF80028F8D1D8
:1003600001217E4801F0E5FF00BF7D497B4802F096
:10037000C1F80028F9D000222146784802F02FF871
:1003800000BF7849754802F0B5F80028F9D001217E
:10039000724801F0AAFF2946704802F01AF800BF1F
:1003A0007049891C6D4802F0A5F80028F8D0012199
:1003B0006A4801F0BEFF00BF6949684802F09AF838
:1003C0000028F9D001222146644802F008F800BF55
:1003D0006349491C614802F08DF80028F8D00021DB
:1003E0005E4801F0BEFF01215C4801F0AEFF00BF96
:1003F0005B493F31594802F07DF80028F8D0574852
:1004000001F0E9FF0646304670BD10B50A2000F045
:10041000EFFF00226B21D020FFF753FF0A2000F0EE
:10042000E7FF07221921D020FFF74BFF0A2000F039
:10043000DFFF06221A21D020FFF743FF0A2000F039
:10044000D7FF18221B21D020FFF73BFF0A2000F026
:10045000CFFF00221C21D020FFF733FF0A2000F03D
:10046000C7FF02223721D020FFF72BFF0A2000F020
:10047000BFFF01220B211820FFF723FF0A2000F005
:10048000B7FF10220A211820FFF71BFF0A2000F0F7
:10049000AFFF11220A211820FFF713FF0A2000F0F6
:1004A000A7FF2522F421EC20FFF70BFF0A2000F024
:1004B0009FFF10BD70B504462146D020FFF745FFD1
:1004C0000546601CC1B2D020FFF73FFF064606EB91
:1004D000052000B270BD2DE9F041044611220A2129
:1004E0001820FFF7EEFE012000F082FF00BF02217E
:1004F0001820FFF72AFF054605F001000028F6D076
:1005000021461820FFF721FF0746601CC1B21820C2
:10051000FFF71BFF064607EB062000B2BDE8F0819F
:1005200070B504462522F421EC20FFF7CAFE052011
:1005300000F05EFF2146EC20FFF707FF0546601C38
:10054000C1B2EC20FFF701FF064606EB052000B222
:1005500070BD0000000C0140801A060000540040ED
:10056000010003008200070008B50121182002F0F5
:1005700095F90120ADF8000010208DF8030003204C
:100580008DF802006946134801F0CAFC0620ADF858
:10059000000048208DF8030003208DF80200694612
:1005A0000C4801F0BDFC4FF4E050ADF80000102005
:1005B0008DF8030003208DF802006946054801F01C
:1005C000AFFC0420ADF800006946034801F0A8FC28
:1005D00008BD0000001001400014014070B5054640
:1005E000002400BF3BE0FF2001F0AEFA00BF022173
:1005F000634803F018FC0028F9D04FF4806161488B
:1006000001F03DFD642000F0D7FE4FF480615D48AD
:1006100001F033FDA4B94FF480515A4801F02FFD89
:100620004FF40061574801F02AFD4FF4006155482E
:1006300001F023FD4FF48051524801F01EFD09E006
:100640004FF400614F4801F01AFD4FF400614D482E
:1006500001F013FD4C4800F0AFFE601CC4B2142C36
:10066000C1DB70BD70B50546002400BF39E0285DD0
:1006700001F06AFA00BF0221414803F0D4FB0028D0
:10068000F9D04FF480613F4801F0F9FC4FF48061EC
:100690003C4801F0F2FCA4B94FF48051394801F014
:1006A000EEFC4FF40061374801F0E9FC4FF40061C3
:1006B000344801F0E2FC4FF48051324801F0DDFC97
:1006C00009E04FF400612F4801F0D9FC4FF40061BC
:1006D0002C4801F0D2FC4FF4167000F06DFE601C47
:1006E000C4B2142CC3DB70BD2DE9F04105460E46A3
:1006F000002400BF40E0A019142190FBF1F201FB9F
:1007000012002F5C384601F01FFA00BF02211C487E
:1007100003F089FB0028F9D04FF48061194801F0FB
:10072000AEFC4FF48061174801F0A7FCA4B94FF468
:100730008051144801F0A3FC4FF40061114801F00E
:100740009EFC4FF400610F4801F097FC4FF480517C
:100750000C4801F092FC09E04FF40061094801F0F7
:100760008EFC4FF40061074801F087FC4FF41670CF
:1007700000F022FE601CC4B2142CBCDBBDE8F0818A
:100780000030014000100140C0D4010070B5FE48A7
:10079000006803F04AFF044622460B46FBA000F027
:1007A0004FFDFD48006803F040FF044622460B461B
:1007B000FAA000F045FDFD48006803F036FF04464E
:1007C00022460B46FAA000F03BFDFC48006803F00F
:1007D0002CFF044622460B46F9A000F031FD70BD07
:1007E00010B50446E8480168204603F0B1FCE6492C
:1007F000086010BD10B50446E7480168204603F0C4
:10080000A7FCE549086010BD10B50446E74801683B
:10081000204603F09DFCE549086010BD10B5044674
:10082000E6480168204603F093FCE449086010BDE7
:100830002DE9F04105460C46E4480168204603F0E6
:10084000D9FC0746E24903F0DBFC0646E1480168B3
:10085000304603F07DFCDF490860DF484168DF482F
:1008600003F0C8FC0646DC488168304603F0C2FC51
:10087000DB490860D848C06880F000404860D6482E
:10088000C06880F000408860D648C8600868D049D9
:1008900003F0B6FC0646D0480168304603F058FC29
:1008A000CD490860CE494868C94903F0A9FC06460D
:1008B000C9484168304603F04BFCC7494860C84905
:1008C0008868C34903F09CFC0646C34881683046EB
:1008D00003F03EFCC0498860C149C868BC4903F0C8
:1008E0008FFC0646BC48C168304603F031FCBA496B
:1008F000C860B8480168284603F07CFCBA49086023
:10090000B54801684FF07E5003F07AFCB7490860A3
:10091000B14881684FF07E5003F072FCB449086022
:10092000B24801684FF07E5003F06AFC06464FF073
:100930007C5103F00DFCAF49086008460168AB48E4
:10094000006803F08FFCAC490860AA480168A84819
:10095000006803F087FCA9490860A4480068A8491A
:1009600008609D4841684FF07E5003F049FCA5495E
:100970000860A3480168A048006803F041FC0646EF
:1009800095480168304603F038FC934908609D485B
:1009900001689948006803F033FC06468E484168B8
:1009A000304603F02AFC8C4948609548016893481A
:1009B000006803F025FC064687488168304603F04E
:1009C0001CFC854988608F4801688C48006803F0EA
:1009D00017FC06468048C168304603F00EFC7E498D
:1009E000C860814801688448006803F009FC064635
:1009F00078480168304603F0ABFB764908607A48D6
:100A000001687E48006803F0FBFB06466F480168FA
:100A1000304603F09DFB6D4908600846016820469A
:100A200003F0E8FB78490860BDE8F0812DE9F04F5C
:100A300089B076497648006803F0DCFB04464FF045
:100A40008D4103F00FFC734908600846006803F00D
:100A5000ECFD80464FF033326F4B03F0E8FC8246EA
:100A600000226E4B03F0E3FC06466D4A6D4B03F02B
:100A700050FD044603F0ECFD664908604FF08241EA
:100A80006148006803F0B6FB80F00044204603F0A4
:100A9000CCFD05464FF06632634B03F03AFD074646
:100AA00003F0D6FD584908600846006803F0BDFD14
:100AB00082465E4A5E4B03F0BAFC06460F465D482E
:100AC000006803F0B2FD804632463B4603F008FC66
:100AD000044603F0BDFD574908604B4801684D4886
:100AE0000068FFF7A5FE4848006803F09EFDCDE9C9
:100AF0000201384801684748006803F07BFB019019
:100B000003F093FD06464FF033324B4B03F08FFC5E
:100B10008046DDE9022303F0E3FB444A444BCDE980
:100B2000040103F084FC04460D462A48006803F0E3
:100B30007CFD22462B46CDE9060103F0D1FB82461F
:100B400003F086FD2349086009B0BDE8F08F70B559
:100B50001A4801682C48006803F052FB0546134808
:100B600001681C48006803F04BFB0646294603F069
:100B7000EFFA044631480168204603F08FFD5FD24A
:100B80002E48046869E05BE0B40000206C65667480
:100B90002069732025660A00B80000207269676822
:100BA000742069732025660A00000000A40000205C
:100BB000502069732025660A00000000A80000206C
:100BC000642069732025660A00000000BC00002034
:100BD000BC74133CA0000020E00000206F12833A98
:100BE00030010020A69B443BC0000020C400002030
:100BF000C8000020CC000020D0000020D40000203D
:100C0000D8000020DC000020900000200000964367
:100C1000980000209C0000203333F33F00806640A2
:100C20001F85EB51B81E0940666630403BDF4F8D93
:100C3000976E823F940000203333D33FAC000020F6
:100C4000FE48006880F000452146284603F026FD56
:100C500003D2FA48006880F00044F948046070BD8F
:100C60002DE9F047F6480468D0F8009000212046AE
:100C700003F014FD0CD2204603F0D7FC07460022F7
:100C8000F04B03F02DFB054603F0E2FC044610E0B8
:100C90000021204603F0F8FC0BD2204603F0C5FCEF
:100CA00007460022E74B03F0BCFB054603F0D0FCEF
:100CB00004460021484603F0F1FC0CD2484603F0FC
:100CC000B4FC07460022E04B03F00AFB054603F0A4
:100CD000BFFC814610E00021484603F0D5FC0BD252
:100CE000484603F0A2FC05460022D74B03F099FBCF
:100CF000074603F0ADFC81460021204603F0CEFC00
:100D000006D2D2480168204603F022FA04460AE0DF
:100D10000021204603F0B8FC05D2CC4801682046EB
:100D200003F068FA04460021484603F0B7FC06D2F7
:100D3000C7480168484603F00BFA81460AE00021E3
:100D4000484603F0A1FC05D2C1480168484603F0BB
:100D500051FA8146B9480168204603F09FFC02D24F
:100D6000B64804680CE0B548006880F000452146AC
:100D7000284603F093FC03D2B048006880F000449A
:100D8000AE480168484603F089FC03D2AB48D0F86E
:100D900000900CE0A948006880F0004549462846CC
:100DA00003F07CFC03D2A548006880F000490021D4
:100DB000204603F073FC12D20021A64800F03DFE4D
:100DC0000421A44800F05FFE204603F01AFCC0F5A1
:100DD000E15085B229469F4802F092FE13E084F06C
:100DE000004404219B4800F028FE0021994800F0AF
:100DF0004AFE204603F005FCC0F5E15085B22946C5
:100E0000944802F07BFE0021484603F047FC12D2D2
:100E10000821904800F011FE00218F4800F033FEB9
:100E2000484603F0EEFBC0F5E15085B229468A48FA
:100E300002F064FE13E089F000490021864800F0CA
:100E4000FCFD0821834800F01EFE484603F0D9FB54
:100E5000C0F5E15085B229467E4802F053FEBDE858
:100E6000F0872DE9F05F82468B4675480168504651
:100E700003F06EF90546594603F06AF904467048D6
:100E80000168504603F064F90546594603F0B2F98B
:100E900081460021204603F001FC0CD2204603F0DD
:100EA000C4FB074600226D4B03F01AFA054603F017
:100EB000CFFB044610E00021204603F0E5FB0BD2F7
:100EC000204603F0B2FB07460022644B03F0A9FA68
:100ED000054603F0BDFB04460021484603F0DEFB57
:100EE00005D25F49484603F033F9814610E00021FE
:100EF000484603F0C9FB0BD2484603F096FB074671
:100F00000022584B03F08DFA054603F0A1FB814601
:100F10000021204603F0C2FB06D24C48016820465F
:100F200003F016F904460AE00021204603F0ACFB6A
:100F300005D246480168204603F05CF904460021CA
:100F4000484603F0ABFB06D241480168484603F02F
:100F5000FFF881460AE00021484603F095FB05D2E0
:100F60003B480168484603F045F98146334801682B
:100F7000204603F093FB02D2304804680CE02F486F
:100F8000006880F000452146284603F087FB03D225
:100F90002A48006880F0004428480168484603F069
:100FA0007DFB03D22548D0F800900CE02348006870
:100FB00080F000454946284603F070FB03D21F48E5
:100FC000006880F000490021204603F067FB12D240
:100FD0000021204800F031FD04211E4800F053FD9F
:100FE000204603F00EFBC0F5E15085B229461948B2
:100FF00002F086FD13E084F000440421154800F05F
:101000001CFD0021134800F03EFD204603F0F9FAD4
:10101000C0F5E15085B229460E4802F06FFD00216F
:10102000484603F03BFB29D208210A4800F005FDA1
:101030000021094800F027FD484615E0AC000020DB
:10104000B000002000C0924000889340B40000200F
:10105000B800002000340140002C014000408F40C7
:10106000004083440068904003F0CBFAC0F5E150A3
:1010700085B229460C4802F041FD13E089F0004991
:101080000021094800F0D9FC0821084800F0FBFCC9
:10109000484603F0B6FAC0F5E15085B22946034848
:1010A00002F030FDBDE8F09F002C0140003401400B
:1010B00010B540F22551AA4801F014FE002870D066
:1010C000A74801F08FFDC4B2A64801880088401CE3
:1010D000A44A1080A448445410460078A3490870DC
:1010E00008460078401EA04A115C9D4801F076FD3C
:1010F00000BF80219A4801F0DFFD0028F9D09A480E
:101100000078302803D100209949086046E09648CD
:101110000078312803D10120954908603EE09248CB
:101120000078322803D102209149086036E08E48C9
:101130000078332803D103208D4908602EE08A48C7
:101140000078342803D104208949086026E08648C5
:101150000078352803D10520854908601EE08248C3
:101160000078362803D106208149086016E07E48C1
:101170000078372803D107207D4908600EE07A48BF
:101180000078382803D108207949086006E07648BD
:101190000078392802D10A20754908600020714979
:1011A000088010BD10B586B004460121042001F06E
:1011B00075FB0121480401F07EFB0420ADF814000A
:1011C00018208DF8170003208DF8160005A969482E
:1011D00000F0A6FE0820ADF8140004208DF81700DA
:1011E00005A9644800F09CFE01940020ADF80800B9
:1011F000ADF80A00ADF80C00ADF810000C20ADF809
:101200000E0001A9564801F0F0FB0121544801F0FD
:1012100078FC012240F22551514801F07EFC262045
:101220008DF8000000208DF8010003208DF80200E9
:1012300001208DF80300684602F031FE06B010BDB3
:101240000FB410B5B4B0002437A80090C92101A88C
:10125000009B369A03F0A6FB8021414801F039FD3E
:1012600026E001A8005D0A2813D10D213C4801F0B9
:10127000B5FC00BF80213A4801F01EFD0028F9D0DE
:101280002046621CD4B201AA115C354801F0A6FCCC
:1012900007E02046621CD4B201AA115C304801F07C
:1012A0009DFC00BF80212E4801F006FD0028F9D0EA
:1012B000C82C03DA01A8005D0028D2D100200090DC
:1012C00034B010BC5DF814FB2DE9F04704462A4DFC
:1012D0000127002620782D2802D10027641C03E076
:1012E00020782B2800D1641C14E020782E2801D10E
:1012F000641C12E02178A1F1300003F079F98046F6
:101300001D49304602F07CFF8146414602F020FF35
:101310000646641C20780028E7D100BF13E021783E
:10132000A1F1300003F064F98146294602F09AFFEA
:101330008046314602F00CFF06460F49284602F06F
:101340005FFF0546641C20780028E8D117B13046BD
:10135000BDE8F0870949304602F052FFF8E7000087
:1013600000440040F800002008020020FA0000209D
:10137000F00000200008014000002041000080BF74
:101380004FF0E021096921F004014FF0E0221161E2
:10139000C21700EB5272C2F3C702304B1A701946E3
:1013A000097801EB4102C2EBC1114FF6FF7202EA6C
:1013B000C1012B4A118070470146284A12784A43DE
:1013C0004FF0E0235A6100229A6101221A6100BFA6
:1013D0004FF0E022106900F001021AB100F48032EF
:1013E000002AF5D000224FF0E0231A619A6170477D
:1013F00001461B4A12884A434FF0E0235A610022FB
:101400009A6101221A6100BF4FF0E022106900F0DA
:1014100001021AB100F48032002AF5D000224FF008
:10142000E0231A619A617047014605E0002001E05F
:10143000421CD0B20A28FBDB0A1EA1F10101F5D142
:10144000704710B5044603E04FF47A70FFF7ECFFE5
:10145000201EA4F10104F7D110BD0000FC00002003
:10146000FE0000207FB505460C460121022001F058
:1014700022FAADF80850ADF804400020ADF80A009B
:10148000ADF8060001A9734801F044FD01221146A0
:10149000704802F0B6F81D208DF8000000208DF88D
:1014A000010003208DF8020001208DF8030068463A
:1014B00002F0F5FC0121674802F088F87FBD70B5A5
:1014C0000121644802F05CFB63480078401C6249DB
:1014D000087008460078012814D13B20FEF7EAFF87
:1014E000044603F085F85D4908604520FEF7E2FFF9
:1014F000044603F07DF85A490860FFF797FAFFF7B2
:1015000026FB24E054480078022819D15548007879
:10151000401C5449087008460078212817DB002039
:1015200008700121504800F08EFD20B901214E487D
:1015300000F0A3FD0BE001214B4800F0A0FD06E008
:1015400045480078032802D10020434908704748E5
:1015500000680C2875D2DFE800F006091119222B6B
:1015600049525B74646DFFF77BFB70E000214048DB
:10157000FFF777FC02203F49086068E03E49002001
:10158000FFF76FFC02203B49086060E03B48FFF733
:1015900031F9FFF765FB09203449086057E0384806
:1015A000FFF728F9FFF75CFB0920304908604EE09F
:1015B00034493548006802F01DFE334908600021B7
:1015C00031480068FFF74DFC0B2028490860FFF701
:1015D000DDF82D48006803F028F8044622460B4643
:1015E0002AA0FFF72DFEFFF73BFB30E02548FFF771
:1015F0000BF9FFF735FB09201C49086027E0254857
:10160000FFF702F9FFF72CFB0920184908601EE0DC
:101610002148FFF703F9FFF723FB0920134908606E
:1016200015E01E48FFF7FAF8FFF71AFB09200F49EB
:1016300008600CE0002114480068FFF712FC06E087
:10164000FFE7FFF70DFB03200A49086000BF00BF5A
:1016500070BD00000004004004010020980000203C
:10166000900000200501002000100140F000002043
:1016700000007A43F4000020000061440000F041C3
:101680000000F0C10000204100010020613A256601
:101690000A000000000020C1CDCC4C3DCDCC4CBD9B
:1016A00000B585B0012144F2040001F0F7F84FF4D1
:1016B0000070ADF8100018208DF8130003208DF88D
:1016C000120004A9754800F02BFC4FF48060ADF8BF
:1016D000100004208DF8130004A9704800F020FCCD
:1016E0004FF4165000900020ADF80400ADF806004D
:1016F000ADF80800ADF80C000C20ADF80A00694602
:10170000674801F072F90121654801F0FAF905B066
:1017100000BD70B504460D46E1B2614801F05EFAC5
:1017200000BF5F48008800F080000028F9D0204604
:1017300070BDF0B503460D461646002729460A2E11
:1017400003D0002008702846F0BD33B9302001F8DE
:10175000010B002008702846F6E7002B03DA2D2045
:1017600001F8010B5B4242F210720DE093FBF2F4C0
:1017700004B937B104F1300001F8010B04FB123356
:1017800001270A2092FBF0F2002AEFDC002008700B
:101790002846D9E70FB470B586B006460CA801906C
:1017A00073E00B9800785C281CD10B98401C0B90C0
:1017B00000786E2809D072280FD10D21304601F033
:1017C0000DFA0B98401C0B900BE00A21304601F0FB
:1017D00005FA0B98401C0B9003E00B98401C0B90F3
:1017E00000BF4BE00B980078252840D10B98401C97
:1017F0000B900078642818D0732833D1019810C852
:1018000001900BE02178304601F0E8F900BF40215B
:10181000304601F051FA0028F9D0641C20780028E5
:10182000F0D10B98401C0B9020E0019820C801904B
:101830000A2202A92846FFF77CFF02AC0BE02178C0
:10184000304601F0CBF900BF4021304601F034FAB8
:101850000028F9D0641C20780028F0D10B98401C97
:101860000B9003E00B98401C0B9000BF06E00B9818
:1018700010F8011B0B90304601F0B0F900BF402179
:10188000304601F019FA0028F9D00B9800780028AA
:1018900087D106B070BC5DF814FB00000008014061
:1018A0000038014070B504460D4600222946204606
:1018B00002F091F800222946204602F09BF870BD04
:1018C00030B58DB005460C4601211C2000F0E6FF26
:1018D0000121084600F0E2FF4FF4C070ADF830007F
:1018E00018208DF8330003208DF832000CA96F48C2
:1018F00000F016FB42F20300ADF830000CA96C4872
:1019000000F00EFB4FF4E070ADF830000CA9694810
:1019100000F006FB01214FF4205000F0BFFFADF8AE
:101920002850ADF824400020ADF82A00ADF826007C
:1019300009A9614801F0EEFA09A9604801F0EAFA44
:1019400001215D4801F042FF01215C4801F03EFFAA
:101950006020ADF814000120ADF816000420ADF8A9
:1019600018000020ADF81A00ADF81C00ADF81E00FC
:10197000ADF82000ADF8220005A94F4801F007FBA3
:1019800005A94E4801F003FB05A94C4801F041FBB5
:1019900005A94A4801F08AFB0821474801F046FFA3
:1019A0000821464801F042FF0821444801F047FF62
:1019B0000821424801F050FF4FF40060ADF80400E8
:1019C0004010ADF806000020ADF808006420ADF826
:1019D0000A000020ADF80C004FF40050ADF80E00E6
:1019E0004000ADF8100001A9334801F0AFFD01A996
:1019F000324801F0ABFD01212F4801F0E7FD012144
:101A00002D4801F0EFFD01212C4801F0DFFD0121FF
:101A10002A4801F0E7FD00212848FFF743FF042191
:101A20002648FFF73FFF08212448FFF73BFF00212E
:101A30002148FFF737FF0DB030BD70B504460D46A5
:101A400050222946204601F0E4FF01222946204683
:101A500001F0C1FF00222946204601F0CBFF70BDF6
:101A600070B504460D4640222946204601F0D1FFBC
:101A700000222946204601F0AEFF042229462046D6
:101A800001F0B8FF70BD70B504460D4660222946CE
:101A9000204601F0BEFF01222946204601F09BFFAF
:101AA00004222946204601F0A5FF70BD0008014030
:101AB000000C014000100140002C014000340140A6
:101AC00008B5012141F2090000F0E8FE0121294892
:101AD00000F0F7FA0121084600F0F3FA3820ADF8DB
:101AE000000018208DF8030003208DF802006946DD
:101AF000214800F015FA0020204908804FF4827038
:101B00004880002088800220C8800120088140028F
:101B10004881382088810020C88107200882184821
:101B200002F058F80121164802F0F9F808BD10B586
:101B30000446124884810146114802F04BF8012105
:101B40000F4802F0ECF810BD70B50446002504E023
:101B5000681CC5B2C82D00DD05E00221084802F06E
:101B600062F90028F4D000BF2146054802F008F9C8
:101B700070BD000000023000000C0140D0020020C7
:101B800000300140A14A0A400243A14B1A6070474D
:101B90000146072323EA010212029D4B1B1D186810
:101BA0004FF6FF0318409B4B18431043984B1B1DE7
:101BB000186070472DE9F0410746884614461D46D7
:101BC0002846FFF7E5FFC5F1040007FA00F60F20ED
:101BD000284100EA0800064306F00F06202C09DA27
:101BE0008D4800680121A14008434FF0E021C1F871
:101BF00000010BE08848001D0068A4F120010122CB
:101C00008A4010434FF0E021C1F804018348005D91
:101C100040EA0610C1B281480155BDE8F08170B5B7
:101C200004460B46CE1701EB9676C6F38700CE1717
:101C300001EB9676B610A1EB8606B606350E784B0C
:101C40009B6943F00103764EB3614FEAB63353F814
:101C500020300F26AE40B343724E46F82030334654
:101C600053F8203004FA05F61E436E4B43F820600B
:101C70006D4B1B6801268E4033436B4E336002F080
:101C8000010343B1684B0C331B6801268E4033437C
:101C9000654E0C36336002F0020343B1624B0833E9
:101CA0001E6801238B401E435F4B08331E6070BDCE
:101CB00000B500205A490861C8601420486100201E
:101CC0008861C8610846006840F001000860084665
:101CD00040685649084052494860084600685449DF
:101CE00008404F4908600846006820F480200860DA
:101CF0000846406820F4FE0048600020886000210B
:101D00004FF00060FFF73EFF00BD10B540480830BF
:101D1000006840F004003E49083108604048C0694E
:101D200040F080503E49C8614248406840F48070AD
:101D3000404948600846006840F0040008600846D2
:101D4000006840F002000860FEF7FCF910BD314861
:101D5000001D2F49091D0860704701464906304A99
:101D6000926942F001022E4B9A612E4A083A52685B
:101D700022F0E0622B4B083B5A601A4652680A4335
:101D80005A60704730B504460025FFF791FF24489C
:101D9000006840F480302249086000BF2048006895
:101DA000400C0028FAD04FF480601D494860A01E06
:101DB000C4B20846406840EA84404860084640682B
:101DC00040F4803048601C48006840F032001A49F6
:101DD00008601348006840F080701149086000BF37
:101DE0000F480068400E0028FAD00D48406840F0C7
:101DF00002000B49486005E009484068C0F38705C8
:101E000005F00305022DF7D130BD000080FFFF1F54
:101E100008ED00E00000FA0500E100E000E400E069
:101E20000010024008000140000401400000FFF8DB
:101E3000FFFFF6FE00700040002002400648804789
:101E400006480047FEE7FEE7FEE7FEE7FEE7FEE79F
:101E5000FEE7FEE7FEE7FEE74F400008310100081D
:101E600010B50446CC48844208D10121042000F07A
:101E70002FFD0021042000F02BFD46E0C7488442DE
:101E800008D10121082000F023FD0021082000F0E6
:101E90001FFD3AE0C248844208D10121102000F021
:101EA00017FD0021102000F013FD2EE0BD488442F4
:101EB00008D10121202000F00BFD0021202000F09E
:101EC00007FD22E0B848844208D10121402000F0FB
:101ED000FFFC0021402000F0FBFC16E0B3488442E8
:101EE00008D10121802000F0F3FC0021802000F0C7
:101EF000EFFC0AE0AE48844207D10121801500F0D2
:101F0000E7FC0021A01500F0E3FC10BD10B5012195
:101F1000084600F0DDFC0021012000F0D9FC10BDD6
:101F20002DE9F04102460025002600200023002470
:101F3000002791F803C00CF00F0591F803C00CF0D6
:101F4000100CBCF1000F03D091F802C04CEA05055B
:101F500091F800C0BCF1000F31D0146800202BE0D4
:101F60004FF0010C0CFA00F3B1F800C00CEA0306C4
:101F70009E4220D183004FF00F0C0CFA03F7BC43B4
:101F800005FA03FC4CEA040491F803C0BCF1280FE5
:101F900006D14FF0010C0CFA00FCC2F814C00AE0A4
:101FA00091F803C0BCF1480F05D14FF0010C0CFAB9
:101FB00000FCC2F810C0401C0828D1D31460B1F84E
:101FC00000C0BCF1FF0F34DD546800202EE000F1AA
:101FD000080C4FF0010808FA0CF3B1F800C00CEA45
:101FE00003069E4221D183004FF00F0C0CFA03F739
:101FF000BC4305FA03FC4CEA040491F803C0BCF1AD
:10200000280F05D100F1080C08FA0CF8C2F814806A
:1020100091F803C0BCF1480F07D100F1080C4FF054
:10202000010808FA0CF8C2F81080401C0828CED32A
:102030005460BDE8F0814FF6FF710180022181708C
:102040000421C17070470246002093680B400BB119
:10205000012000E0002070470146886880B2704788
:1020600002460020D3680B400BB1012000E00020A5
:1020700070470146C86880B270470161704741618E
:1020800070470AB1016100E041617047C16070476B
:102090004FF480320A438261816182618269826980
:1020A000704702460020434B18684FF68073184073
:1020B00040EA021008433F4B186070473E49C86130
:1020C0007047F0B50A46002300240021002500F0E7
:1020D0000046B6F1004F02D1364EF16901E0354EAF
:1020E0007168C0F3034583B200F44016B6F5401F93
:1020F00008D121F070612F4E766826F070662D4F62
:102100007E6012E000F48016B6F5801F06D103262B
:1021100006FA05F4A14341F0706106E0460D360170
:1021200003FA06F6B14341F0706122B1460D360163
:1021300003FA06F6314300F00046B6F1004F02D133
:102140001C4EF16101E01B4E7160F0BD30B5002204
:102150008B071C0F0F2303FA04F2164B08338C1065
:1021600053F824309343134C08348D1044F8253031
:1021700023468C1053F824308C07240F00FA04F403
:1021800023430C4C08348D1044F8253030BD0A49E7
:10219000DC3108607047000000080140000C01407D
:1021A000001001400014014000180140001C0140D3
:1021B00000200140000001400000204210B504460C
:1021C000F748844209D10121480500F08EFB002127
:1021D0004FF4001000F089FB08E00121880500F0B1
:1021E00084FB00214FF4800000F07FFB10BD2DE93F
:1021F000F04385B004460D460026B1460427DFF8BB
:10220000A483A6884FF6C0700640684600F0D9FA4D
:10221000DDF80880E448B8FBF0F01FFA80F946EAE0
:102220000906A68020884FF6FE710840208000260F
:10223000DE49286888420CD828684000B8FBF0F0D6
:1022400087B2042F00DA04273E4309F101002084FD
:1022500027E0E8884BF6FF71884206D1286800EB3A
:102260004000B8FBF0F087B209E0286800EBC0013D
:1022700001EB0010B8FBF0F087B247F48047C7F3DA
:102280000B0008B947F0010747F4004006434FF43C
:10229000967009FB00F04FF47A7190FBF1F0401C4E
:1022A0002084A683208840F00100208026884FF6F5
:1022B000F5300640A8886989084306432680A88926
:1022C00029890843208105B0BDE8F08341F28831B7
:1022D0000160002181804BF6FF71C18000210181E6
:1022E00041814FF480418181704721B1028842F0E1
:1022F0000102028004E002884FF6FE731A40028059
:10230000704721B1828842F40062828004E08288B2
:102310004FF2FF731A408280704721B1828842F4E5
:102320008052828004E082884EF6FF731A408280D9
:10233000704721B1028842F48072028004E0028872
:102340004FF6FF631A400280704721B1028842F4C1
:102350000072028004E002884FF6FF531A400280A8
:10236000704721B1028842F48062028004E0028852
:102370004FF6FF331A40028070470A4600218189D8
:102380004FF60173194002F0FE0319438181704733
:1023900021B1828942F00102828104E082894FF6F4
:1023A000FE731A408281704721B1028842F04002D8
:1023B000028004E002884FF6BF731A400280704723
:1023C0001AB183880B43838002E083888B43838028
:1023D0007047018270470146088AC0B2704712B147
:1023E00041F0010102E04FF6FE731940018270478F
:1023F00008B5024600200090009200980844009022
:102400000098008808BD21B1028842F40042028091
:1024100003E00288C2F30E0202807047B1F5006F3C
:1024200004D1028842F40062028004E002884FF284
:10243000FF731A4002807047B1F5005F04D1028833
:1024400042F40052028004E002884DF6FF731A4005
:102450000280704721B1028842F48052028004E079
:1024600002884EF6FF731A4002807047B1F5006F84
:1024700004D1028842F40062028004E002884FF234
:10248000FF731A400280704721B1028842F0200297
:10249000028004E002884FF6DF731A400280704722
:1024A0000146088B0012704721B1028842F01002E9
:1024B000028004E002884FF6EF731A4002807047F2
:1024C00021B9028842F08002028004E002884FF6BF
:1024D0007F731A4002807047B1F5804F05D0828B20
:1024E0004BF6FF731A40828303E0828B42F48042F2
:1024F0008283704770B50246002400250023002027
:10250000958A138B1B0445EA030626F07F4404EAF0
:1025100001068E4201D1012000E0002070BD10B5FF
:1025200001460020002300228B8A0A8B120443EA12
:10253000020424F07F4010BD0CB5024600200023A9
:102540000193009300920B0F019321F07F41019BB7
:102550001BB1009B1433009303E0090C009B18335C
:102560000093009B1B680B400BB1012000E0002092
:102570000CBD002221F07F42D3438382704730B5E7
:10258000024600200023948801F0E06504EA154328
:1025900021F07F41948A0C4054B14BB1012008E0F6
:1025A0000054004000127A0040420F00A086010053
:1025B000002030BD002221F07F42D3438382704748
:1025C000DF48006840F00100DD49086008464068C7
:1025D000DC490840DA49486008460068DA490840A2
:1025E000D74908600846006820F480200860084643
:1025F000406820F4FE0048604FF41F008860704778
:10260000CF49096821F48031CD4A1160114609682B
:1026100021F480211160B0F5803F03D0B0F5802F08
:102620000ED106E0C649096841F48031C44A116000
:1026300007E0C349096841F4A021C14A116000E0E4
:1026400000BF00BF704710B50146002200230020E4
:102650004A11012A02D1BA4C236806E0022A02D1AB
:10266000B74C236A01E0B64C636A01F01F020124F3
:1026700094401C400CB1012000E0002010BD38B592
:10268000002000900024002500BF3120FFF7DBFF71
:1026900005460098401C00900098B0F5A06F01D04E
:1026A000002DF2D03120FFF7CEFF08B1012400E069
:1026B0000024204638BD01460020A14A106820F0C1
:1026C000F80040EAC10010607047A04908607047F8
:1026D000024600209A4B586820F47C1042EA01031D
:1026E0001843974B586070479849086670470146F1
:1026F0000020934A506820F0030008435060704760
:102700008F48406800F00C007047014600208C4A5A
:10271000506820F0F00008435060704701460020E8
:10272000874A506820F4E0600843506070470146D3
:102730000020834A506820F4605040EAC100506095
:10274000704729B17E4A527A02437D4B5A7204E0A7
:102750007B4A527A82437A4B5A7270477B49D8310E
:102760000860704701460020754A506820F44040D8
:102770000843506070470021714A20321170704A3E
:1027800082F82010012802D004280AD104E0012197
:102790006B4A2032117005E00521694A2032117020
:1027A00000E000BF00BF7047694908607047644996
:1027B000096A0143624A11627047654944390860F9
:1027C000704730B500210022002400235C4D6D6865
:1027D00005F00C0121B1042905D0082923D105E019
:1027E0005C4D056022E05B4D05601FE0544D6D6857
:1027F00005F47012524D6D6805F48034022505EB26
:1028000092421CB9544D554305600BE04C4D6D6828
:1028100005F400351DB1504D5543056002E04D4DA6
:102820005543056002E04B4D056000BF00BF444DBD
:102830006D6805F0F0010909484D6B5C0568DD40E5
:1028400045603F4D6D6805F4E061090A434D6B5CDE
:102850004568DD4085603A4D6D6805F46051C90AF0
:102860003E4D6B5C4568DD40C560354D6D6805F4D7
:102870004041890B3A4D6B5CC568B5FBF3F50561CA
:1028800030BD29B12E4A526902432D4B5A6104E0F2
:102890002B4A526982432A4B5A61704729B1284A10
:1028A00092690243264B9A6104E0254A9269824369
:1028B000234B9A61704729B1214AD2690243204BC8
:1028C000DA6104E01E4AD26982431D4BDA61704727
:1028D00029B11B4AD2680243194BDA6004E0184A56
:1028E000D2688243164BDA60704729B1144A1269E4
:1028F0000243134B1A6104E0114A12698243104BE0
:102900001A61704712494039086070470F49C8641E
:1029100070470B49C87170470948406A40F08070A1
:1029200007494862704701460020054A92680A40FC
:102930000AB1012000E00020704701498872704709
:10294000001002400000FFF8FFFFF6FE00004242C8
:102950008004424200127A0000093D000601002076
:102960001601002010B50446FB48844209D101211C
:102970008803FFF7ADFF00214FF48040FFF7A8FF69
:1029800032E0F648844209D101214804FFF7ADFF47
:1029900000214FF40030FFF7A8FF25E0F048844203
:1029A00009D101218804FFF7A0FF00214FF4802006
:1029B000FFF79BFF18E0EB48844209D10121C804CE
:1029C000FFF793FF00214FF40020FFF78EFF0BE08D
:1029D000E548844208D101210805FFF786FF002160
:1029E0004FF48010FFF781FF10BD2DE9F04786B04E
:1029F00005460E460024A24600BFA1460027B08926
:102A000000B100BF2F462C8A4CF6FF700440F088BE
:102A100004432C82AC894EF6F3100440B08831890F
:102A20000843718908430443AC81AC8A4FF6FF40E8
:102A30000440B0890443AC8201A8FFF7C2FEC64837
:102A4000874202D1DDF810A001E0DDF80CA0A889D2
:102A500000F4004040B10AEBCA0000EB0A103168F4
:102A60004900B0FBF1F807E00AEBCA0000EB0A10DE
:102A700031688900B0FBF1F86420B8FBF0F0040184
:102A80002009642101FB1089A88900F4004040B1AD
:102A9000322000EBC900B0FBF1F000F00700044366
:102AA00008E0322000EB09106421B0FBF1F000F0E7
:102AB0000F0004432C8106B0BDE8F0874FF4165197
:102AC000016000218180C18001810C2141810021B0
:102AD0008181704710B502460020108A4FF2FF0333
:102AE00018400B884C8823438C882343CC8823438D
:102AF0001843108210BD0021018041808180C18077
:102B0000704721B1828942F40052828104E08289B7
:102B10004DF6FF731A4082817047F0B503460024DA
:102B200000260025002040F66A17B94200D100BFF8
:102B30001846C1F3421401F01F06012707FA06F5F3
:102B4000012C01D10C3004E0022C01D1103000E046
:102B500014301AB107682F43076002E00768AF43DB
:102B60000760F0BD1AB1838A0B43838202E0838A37
:102B70008B4383827047028A4FF6F0731A400282B9
:102B8000028A0A430282704782894FF2FF731A4019
:102B9000828182890A438281704721B1828942F011
:102BA0000202828104E082894FF6FD731A4082811D
:102BB0007047028A4FF6DF731A400282028A0A4384
:102BC0000282704721B1028A42F48042028204E00C
:102BD000028A4BF6FF731A4002827047C1F3080263
:102BE0008280704701468888C0F308007047818959
:102BF00041F0010181817047028BD2B20283028BC6
:102C000042EA012202837047028B02F47F42028370
:102C1000028B0A430283704721B1828A42F020026C
:102C2000828204E0828A4FF6DF731A408282704704
:102C300021B1828A42F01002828204E0828A4FF639
:102C4000EF731A408282704721B1828A42F00802F3
:102C5000828204E0828A4FF6F7731A4082827047BC
:102C600021B1828942F40042828103E08289C2F369
:102C70000E028281704721B1828A42F40062828210
:102C800004E0828A4FF2FF731A4082827047828A80
:102C90004FF6FB731A408282828A0A43828270470F
:102CA00021B1828A42F00202828204E0828A4FF6D7
:102CB000FD731A408282704702460020B1F5007F02
:102CC00000D100BF13880B400BB1012000E00020B1
:102CD000704701F40072B2F5007F00D100BFCA4313
:102CE0000280704770B502460024002300250020B2
:102CF00040F66A16B14200D100BFC1F3421501F09F
:102D00001F03012606FA03F3012D02D196893340F1
:102D100006E0022D02D1168A334001E0968A334044
:102D20000C12012606FA04F41688344013B10CB1D3
:102D3000012000E0002070BD10B50022002340F605
:102D40006A14A14200D100BF0A1201249440A3B228
:102D5000DC43048010BD0000003801400044004006
:102D600000480040004C00400050004010B50446B0
:102D7000FE48844208D10121C014FFF7A9FD0021BB
:102D8000E014FFF7A5FDC4E0B4F1804F08D10121A4
:102D90000846FFF7AAFD00210120FFF7A6FDB8E0D5
:102DA000F348844208D101210220FFF79EFD002153
:102DB0000220FFF79AFDACE0EE48844208D10121E1
:102DC0000420FFF792FD00210420FFF78EFDA0E014
:102DD000E948844208D101210820FFF786FD00213F
:102DE0000820FFF782FD94E0E448844208D10121E5
:102DF0001020FFF77AFD00211020FFF776FD88E014
:102E0000DF48844208D101212020FFF76EFD002118
:102E10002020FFF76AFD7CE0DA48844208D10121D6
:102E20004014FFF755FD00216014FFF751FD70E0DD
:102E3000D548844209D10121C804FFF749FD00218A
:102E40004FF40020FFF744FD63E0D048844209D1ED
:102E500001210805FFF73CFD00214FF48010FFF72A
:102E600037FD56E0CA48844209D101214805FFF7E1
:102E70002FFD00214FF40010FFF72AFD49E0C5485F
:102E8000844208D101214020FFF72FFD002140207E
:102E9000FFF72BFD3DE0C048844208D1012180208E
:102EA000FFF723FD00218020FFF71FFD31E0BB4825
:102EB000844208D101218015FFF717FD0021A015DC
:102EC000FFF713FD25E0B648844209D1012108042B
:102ED000FFF7FEFC00214FF48030FFF7F9FC18E00B
:102EE000B048844209D101214804FFF7F1FC0021D8
:102EF0004FF40030FFF7ECFC0BE0AB48844208D104
:102F000001218804FFF7E4FC00214FF48020FFF743
:102F1000DFFC10BD00220288944B98420ED0994BE2
:102F200098420BD0B0F1804F08D0914B984205D019
:102F3000904B984202D0904B984204D14FF68F7339
:102F40001A404B881A438D4B984207D08C4B9842BD
:102F500004D04FF6FF431A40CB881A4302808B8877
:102F600083850B880385814B98420BD0854B984213
:102F700008D08B4B984205D08A4B984202D08A4B9E
:102F8000984201D10B7A038601238382704770B582
:102F9000002400220023058C4FF6FE763540058480
:102FA000028C8388048B4FF68F752C40B51E2C4005
:102FB0000D882C43751E2A400D892A434D882A43CB
:102FC0006A4DA8420BD06F4DA84208D0744DA8425C
:102FD00005D0744DA84202D0734DA84213D14FF6CC
:102FE000F7752A404D892A434FF6FB752A408D8894
:102FF0002A434FF6FF652B404FF6FF552B408D8936
:103000002B43CD892B4383800483CD88858602841E
:1030100070BD70B5002400220023058C4FF6EF76BA
:1030200035400584028C8388048B48F6FF752C405C
:103030004FF6FF452C400D884FF6FF7606EA052532
:103040002C434FF6DF752A400D8906EA05152A4301
:103050004D8806EA05152A43444DA84202D0494D41
:10306000A8421DD14FF67F752A404D894FF6FF7655
:1030700006EA05152A434FF6BF752A408D8806EAF1
:1030800005152A434FF6FF352B404FF2FF752B40B5
:103090008D8906EA85052B43CD8906EA85052B43F4
:1030A00083800483CD880587028470BD70B50024B9
:1030B00000220023058C4FF6FF6635400584028C04
:1030C0008388848B4FF68F752C404FF6FC752C400F
:1030D0000D882C434FF6FF552A400D894FF6FF7699
:1030E00006EA05252A434D8806EA05252A431F4D91
:1030F000A84202D0234DA8421DD14FF2FF752A40AD
:103100004D894FF6FF7606EA05252A434FF6FF352F
:103110002A408D8806EA05252A434EF6FF752B4086
:103120004DF6FF752B408D8906EA05152B43CD8999
:1031300006EA05152B4383808483CD888587028426
:1031400070BD70B5002200230024058C4EF6FF767A
:1031500035400584038C8488828B48F6FF752A40AD
:103160004FF6FF452A400D8820E00000002C01406A
:103170000004004000080040000C00400010004027
:103180000014004000340140004C01400050014058
:103190000054014000180040001C00400020004086
:1031A0000040014000440140004801404FF6FF76D6
:1031B00006EA05252A434DF6FF752B400D8906EAE0
:1031C00005352B434D8806EA05352B43FA4DA842B9
:1031D00002D0FA4DA84208D14BF6FF752C408D89DC
:1031E0004FF6FF7606EA85152C4384808283CD88CE
:1031F000A0F84050038470BD828B4FF2FF331A4019
:103200008283828B4FF6FF7303EA01231A43828382
:103210007047F0B50C461546002200210026078CA9
:103220004EF6FF7C07EA0C070784828B018C4FF671
:10323000FF7707EA043640F6FF473A404FF6FF773C
:1032400007EA05273A434FF6FF7707EA03373A4381
:10325000D94FB8420ED0D94FB8420BD0B0F1804F01
:1032600008D0D74FB84205D0D64FB84202D0D64F7B
:10327000B84206D14DF6FF77394046F480573943BE
:1032800005E047F6FF57394044F4805739438283BD
:103290000184F0BD828B4FF6F3731A408283828BD8
:1032A0000A4382837047F0B50C4615460022002180
:1032B0000026078C4FF6FF6C07EA0C070784828B09
:1032C000018C4FF6FF7707EA04264FF60C773A4059
:1032D0004FF6FF7707EA03172F433A43B64FB8423A
:1032E0000ED0B64FB8420BD0B0F1804F08D0B44FDB
:1032F000B84205D0B34FB84202D0B34FB84206D15E
:103300004FF6FF57394046F48077394305E04FF2D6
:10331000FF57394044F48077394382830184F0BDFC
:10332000028B4FF2FF331A400283028B4FF6FF737A
:1033300003EA01231A4302837047F0B50C46154691
:10334000002200210026078C4FF6EF7C07EA0C07CD
:103350000784028B018C4FF6FF7707EA041640F6CC
:10336000FF473A404FF6FF7707EA03373A434FF6F5
:10337000FF7707EA05273A438F4FB8420ED08F4FA9
:10338000B8420BD0B0F1804F08D08D4FB84205D075
:103390008C4FB84202D08C4FB84206D14FF6DF773F
:1033A000394046F01007394305E04FF65F77394062
:1033B00044F01007394302830184F0BD028B4FF6BD
:1033C000F3731A400283028B0A4302837047F0B5FD
:1033D0000C46154600220021068C4FF6FE773E4033
:1033E0000684028B018C4FF60C7632407E1C06EA76
:1033F00003162E433243704EB0420ED06F4EB04291
:103400000BD0B0F1804F08D06D4EB04205D06D4E5C
:10341000B04202D06C4EB04206D14FF6FD7631403C
:1034200044F00106314305E04FF6F576314044F0B3
:103430000106314302830184F0BD70B505460C4698
:103440005D4885420ED05D4885420BD0B5F1804F76
:1034500008D05B48854205D05A48854202D05A4878
:10346000854200D100E000BF208850B92389A2889E
:1034700061882846FFF7ABFFE1882846FFF79EFFEB
:1034800025E0208804280AD12389A288618828465B
:10349000FFF753FFE1882846FFF742FF17E0208837
:1034A00008280AD12389A28861882846FFF7FBFEF5
:1034B000E1882846FFF7EEFE09E02389A2886188AB
:1034C0002846FFF7A6FEE1882846FFF795FE70BD67
:1034D0002DE9F04105460C4600260127608808B911
:1034E000022600E00026A088012801D1022700E082
:1034F00001272088A0B92389A28861882846FFF780
:1035000066FFE1882846FFF759FF23893A4631468E
:103510002846FFF712FFE1882846FFF701FF13E076
:103520002389A28861882846FFF707FFE18828469B
:10353000FFF7F6FE23893A4631462846FFF747FF54
:10354000E1882846FFF73AFFBDE8F0810A884B88FA
:103550001A438B881A43CB881A430B891A434B8929
:103560001A438B891A43A0F8442070474FF6FF7125
:10357000818000210180C18041800172704700215B
:10358000018041808180C180018141818181C1812F
:103590007047002101804180012181800021C1808C
:1035A000018170470021018041808180C1800181BB
:1035B0004181818170470000002C014000340140AE
:1035C0000004004000080040000C004021B10288C7
:1035D00042F00102028004E002884FF6FE731A40B6
:1035E0000280704731B1B0F8442042F40042A0F8A4
:1035F000442005E0B0F84420C2F30E02A0F84420B5
:1036000070471AB183890B43838102E083898B431E
:10361000838170478182704741EA0203A0F84830F5
:1036200070471AB183890B43838102E083898B43FE
:103630008381704701894FF6F8721140018170470C
:103640000A46002101894FF68F7319401143018109
:10365000704730B504460D4629462046FFF7F0FF77
:10366000208940F00700208130BD2DE9F04104465B
:103670000D4616461F46602D06D13B4601223146B7
:103680002046FFF75AFE05E03B4601223146204620
:10369000FFF79DFE29462046FFF7D2FF208940F024
:1036A00007002081BDE8F08130B50C46002101897A
:1036B000C9B24FF6FF7505EA032515432543294393
:1036C000018130BD2DE9F04105460E46174698466A
:1036D000002443463A4631462846FFF7E5FF2C8949
:1036E0004FF6F870044044F007044FF68F70044022
:1036F00044F070042C81BDE8F081F0B504460D461D
:1037000016461F463B46324629462046FFF7CCFF69
:10371000208940F480402081F0BD0185828270477D
:103720000A46002101884FF68F731940114301802A
:103730007047F0B50C4615461E46002100220023B6
:103740000189028B038C4FF6F877394021434FF6FD
:10375000FC473A4040F201173A434FF6DD773B40D1
:103760004FF6FF7707EA06172F433B430181028399
:103770000384F0BD0A460021018B4FF68F73194078
:103780001143018370470A460021018B48F6FF73FD
:1037900019404FF6FF7303EA022319430183704770
:1037A0000A460021818B4FF68F73194011438183A4
:1037B00070470A460021818B48F6FF7319404FF687
:1037C000FF7303EA022319438183704721B1028802
:1037D00042F08002028004E002884FF67F731A40B4
:1037E0000280704721B1828842F00402828004E0A6
:1037F00082884FF6FB731A408280704721B182881D
:1038000042F00802828004E082884FF6F7731A4083
:103810008280704721B1828842F00102828004E0F8
:1038200082884FF6FE731A40828070470A46002154
:10383000018B4FF6F77319401143018370470A4615
:103840000021018B4FF2FF7319404FF6FF7303EA1B
:1038500002231943018370470A460021818B4FF6EA
:10386000F77319401143818370470A460021818B09
:103870004FF2FF7319404FF6FF7303EA0223194317
:10388000818370470A460021018B4FF6FB73194074
:103890001143018370470A460021018B4FF6FF3325
:1038A00019404FF6FF7303EA02231943018370475F
:1038B0000A460021818B4FF6FB7319401143818327
:1038C00070470A460021818B4FF6FF3319404FF6AF
:1038D000FF7303EA02231943818370470A460021DC
:1038E000018B4FF67F7319401143018370470A46DD
:1038F0000021018BC1F30E014FF6FF7303EA02238F
:103900001943018370470A460021818B4FF67F736C
:1039100019401143818370470A460021818BC1F30E
:103920000E014FF6FF7303EA0223194381837047A8
:103930000A460021018C4FF6FD73194011430184A2
:1039400070470A460021018C4FF6F7731940114366
:10395000018470470A460021018C4FF6DF7319403D
:103960004FF6FF7303EA02131943018470470A46B6
:103970000021018C4FF67F7319404FF6FF7303EA65
:1039800002131943018470470A460021018C4FF647
:10399000FF5319404FF6FF7303EA022319430184D2
:1039A00070470A460021018C4FF2FF7319404FF611
:1039B000FF7303EA02231943018470470A4600217A
:1039C000018C4DF6FF7319404FF6FF7303EA023383
:1039D00019430184704730B5002301248C40A3B201
:1039E000048C9C430484048C02FA01F5ADB22C4390
:1039F000048430BD30B5002304248C40A3B2048C71
:103A00009C430484048C02FA01F5ADB22C43048477
:103A100030BD70B50346002000241846183001253B
:103A20008D40ACB21D8CA5431D8409B1082909D174
:103A300000EB6100056825F0700505600568154319
:103A400005600EE00D1FC5F34E052844056825F4FA
:103A5000E045056005684FF6FF7606EA0226354325
:103A6000056070BD21B1028842F00202028004E0CC
:103A700002884FF6FD731A400280704721B1028818
:103A800042F00402028004E002884FF6FB731A4001
:103A90000280704721B1828842F08002828004E077
:103AA00082884FF67F731A408280704702884FF6F3
:103AB000F7731A40028002880A43028070478288A6
:103AC0004FF68F731A40828082880A438280704743
:103AD00002894FF6F8731A40028102890A43028173
:103AE000704702894FF67F731A40028102890A43A8
:103AF0000281704781847047818570478186704755
:103B00000187704781877047A0F84010704702888E
:103B10004FF6FF431A40028002880A430280704732
:103B20000146888E70470146088F70470146888F8E
:103B300070470146B1F8400070470146888C7047D5
:103B40000146088D704702460020138A0B400BB1D6
:103B5000012000E000207047CA430282704730B560
:103B60000246002000230024158A05EA01039589F6
:103B700005EA010413B10CB1012000E0002030BDC2
:103B8000CA4302827047000010B50446BE48844212
:103B900008D101218014FEF79BFE0021A014FEF73E
:103BA00097FE16E0B948844208D101210014FEF7BF
:103BB0009CFE00212014FEF798FE0AE0B4488442DF
:103BC00007D10121C013FEF790FE0021E013FEF79C
:103BD0008CFE10BD10B50022028802F441520B8801
:103BE0004C8823438C882343CC8823430C8923436C
:103BF0004C8923438C892343CC8923431A43028075
:103C0000838B4FF2FF74234083830B8A038210BDA2
:103C10002DE9F04F85B005460C464FF0000902270C
:103C20004FF000084FF0010B0026B246A88B4FF270
:103C300040010840A88302202884B5F81C90A068A1
:103C4000022801D100BF38E0A08810B94FF0010B65
:103C500001E04FF0020B8D48854200D100E000BF2B
:103C60006846FEF7AEFDDDF800A0E088B0F5007F05
:103C70000AD14FEA1A2000EB80004000A168B0FB97
:103C8000F1F0401D86B20BE04FEA4B10BAFBF0F0AA
:103C900000EB80004000A168B0FBF1F0401D86B24F
:103CA0000A20B6FBF0F606F00108A6EB0800C0F308
:103CB0004F074FF6FF7000EA0828022F01DBFF2FA5
:103CC00002DD02274FF00008E08840EA0800384390
:103CD0002884A088A1890843618808432188084373
:103CE00040F4006040EA0909A5F81C9005B0BDE861
:103CF000F08F0021018041808180C180018141815C
:103D00008181C181072101827047002101804180AA
:103D10008180C1800221816000218181704721B1B1
:103D2000028842F04002028004E002884FF6BF732E
:103D30001A400280704721B1828B42F480628283F4
:103D400004E0828B4FF6FF331A408283704730B510
:103D5000002400230C110125A540ABB21AB18588BF
:103D60001D43858002E085889D43858030BD1AB162
:103D700083880B43838002E083888B438380704772
:103D8000818170470146888970474FF6FF629142F2
:103D900004D0028842F48072028004E002884FF668
:103DA000FF631A400280704721B1828842F004020A
:103DB000828004E082884FF6FB731A40828070474D
:103DC00002884FF2FF731A40028002880A43028081
:103DD0007047018841F480510180704721B1028809
:103DE00042F40052028004E002884DF6FF731A404C
:103DF0000280704702460020012901D0108B00E0AC
:103E0000908A70470146088A7047B1F5804F04D107
:103E1000028842F48042028004E002884BF6FF737D
:103E20001A40028070470246002013890B400BB1F4
:103E3000012000E000207047CA4302817047F0B5BE
:103E40000246002000240023002501F00F07012670
:103E5000BE40B4B20B1101269E40B3B2968806EA6A
:103E600003051689264016B10DB1012000E000209F
:103E7000F0BD10B5002201F00F040123A3409AB257
:103E8000D343038110BD00000030014000380040E2
:103E9000003C004031490143314A1160704770B520
:103EA000002100230F22C47804B32D4C246804F4AD
:103EB000E064C4F5E064210AC1F10403CA40447817
:103EC00004FA03F18478144021430901254C067853
:103ED000A155047804F01F050124AC4005786D114C
:103EE000AD0005F1E025C5F8004109E0047804F0D3
:103EF0001F050124AC401C4D0678761145F826407C
:103F000070BD1A4A0A400243154B1B1F1A607047C6
:103F100039B1134A121D12680243114B1B1D1A605E
:103F200006E00F4A121D126882430D4B1B1D1A60DA
:103F30007047042808D14FF0E021096941F00401DD
:103F40004FF0E022116107E04FF0E021096921F014
:103F500004014FF0E0221161704700000000FA05F3
:103F60000CED00E000E400E080E100E080FFFF1FD6
:103F70000CB50020019000906C48006840F480303F
:103F80006A49086000BF6948006800F4003000908A
:103F90000198401C0190009818B90198B0F5A06FE5
:103FA000F1D16248006800F4003010B101200090A7
:103FB00001E0002000900098012843D15C4800688F
:103FC00040F010005A4908600846006820F00300DD
:103FD00008600846006840F00200086053484068E6
:103FE000524948600846406848600846406840F4C6
:103FF000806048600846406820F47C1048600846AD
:10400000406840F4E81048600846006840F080705E
:10401000086000BF4548006800F000700028F9D033
:104020004248406820F00300404948600846406824
:1040300040F00200486000BF3C48406800F00C00BF
:104040000828F9D10CBD10B5FFF792FF10BD10B5CF
:104050003648006840F0010034490860084640686E
:1040600034490840314948600846006832490840F0
:104070002E4908600846006820F480200860084641
:10408000406820F4FE0048604FF41F008860FFF78E
:10409000DAFF4FF000602949086010BD10B500211B
:1040A00000200022214B5B6803F00C0121B10429A0
:1040B00006D0082928D107E0214B224C236027E0B5
:1040C0001F4B204C236023E0184B5B6803F47010F7
:1040D000164B5B6803F48032022303EB904022B955
:1040E000194B4343174C23600DE0104B5B6803F4FE
:1040F000003323B1144B4343124C236003E0104BB5
:104100004343104C236003E00D4B0E4C236000BF73
:1041100000BF064B5B68C3F303130C4CE15C094B17
:104120001B68CB40074C236010BD0000001002400C
:10413000002002400000FFF8FFFFF6FE08ED00E05F
:1041400000127A001C01002000093D00200100201F
:10415000F0B480EA0102D40F4200B2EB410F02D268
:104160000246084611464A0042D0C30DDDB2C1F3F3
:10417000C752AD1A202D35DAC1F3160141F4000201
:1041800004B15242C5F1200602FA06F12A41104458
:10419000B3EBD05F23D0C4B1012DA0EBC35009DC39
:1041A000F0BC4FF0004202EAC352DBB200F500005F
:1041B00000F0EFBA400000F1807000EBC350A0F1B6
:1041C000807040EAD170490009E0490841EAC071B5
:1041D000A0EBC35000F50000400800EBC350F0BC5A
:1041E00000F0CEBA6142012202EB4101001BF6E76A
:1041F000F0BC704781F00041AAE780F00040A7E7DB
:1042000080EA010210B502F00043400022D04A00CB
:104210001FD0010E01EB1261C0F35600C2F356022B
:1042200040F4000042F40002A0FB022000047F39A9
:10423000140400D0401C50EA124001D44000491E32
:10424000C2B20C0604EBD010401C4008802A02D0F9
:1042500003E0002010BD20F00100002900DA00205A
:10426000184310BD30B480EA010202F0004530F07E
:10427000004221F0004013D090B1C30DD40DC2F321
:104280001601C0F31600E41A41F4000140F40002E4
:104290007D34914201D3641C00E04900002C02DA15
:1042A00030BC002070474FF400000023914201D33E
:1042B000891A034340084FEA4101F7D151B19142B5
:1042C00002D14FF0004105E002D24FF0010101E0C0
:1042D0006FF0010103EBC450284430BC00F050BA29
:1042E0002DE9FE4F804681EA0300C00F0C46009086
:1042F00021F0004123F00045B8EB0200A94105D2AE
:104300004046214690461C460B46024623F000409C
:10431000104347D0270DC7F30A00C3F30A51029098
:10432000401A019040286BDAC3F3130040F4801B5D
:104330000098924620B10023D2EB030A63EB0B0BEB
:1043400001985946C0F14002504600F0F8F906467F
:104350000D4650465946019A00F000FA10EB08004D
:104360006141002487EA115284EAE7731A4340D07E
:10437000009A62B3019A012A4FEA075215DC001B2A
:1043800061EB02014FF0004202EA0752CDE9004220
:10439000001C41F5801132462B4600F037FA03B07D
:1043A000BDE8F08F40462146F9E7001B61EB0201B2
:1043B000001C41F5801300185B412018A2F500177E
:1043C00047EB030140EAD570B6196D4111E06D0865
:1043D0004FEA360645EAC0754FEA0752001B61EB0B
:1043E0000201001C41F5801149084FEA3000001914
:1043F000514132462B4603B0BDE8F04F00F0F7B90B
:104400000098012240000023D0EB020263EBE0732E
:10441000009821464FEAE074B8EB000061EB04011C
:10442000E9E783F000435BE781F0004158E72DE9BD
:10443000FE4F81EA030404F0004421F0004100949F
:104440004FF0000B23F0004350EA01045ED052EA23
:1044500003045BD0C3F30A54C1F30A552C44A4F2FD
:10446000F3340194A0FB0254C1F3130141F4801111
:10447000C3F3130343F4801301FB024400FB034E18
:10448000840A970A44EA815447EA8357A4FB0768E1
:1044900002958D0A05FB07854FEA932C04FB0C540B
:1044A0002705029D4FEA065847EA1637B5EB08057F
:1044B0006EEB070C870E920E47EA811742EA8312D1
:1044C000A7FB0201B6EB0B0164EB00042B0D43EAE2
:1044D0000C335E1844EB1C50DA465146E7FB0201F0
:1044E000C5F313044FEA0B3343EA14534FEA043283
:1044F000019C43EA0603A4F10C040294009CCDE95C
:1045000000B400F083F903B0BDE8F08F002001464D
:10451000F9E72DE9F04D81EA030404F0004B21F0A6
:10452000004514464FF0000A23F0004150EA05020E
:1045300020D054EA01021DD0C5F30A570246C5F344
:104540001303C1F31300C1F30A5640F4801543F47A
:104550008013A7EB0608101BD64608F2FD3873EB54
:10456000050002D308F1010801E092185B41B8F19F
:10457000000F03DA00200146BDE8F08D00204FF463
:104580008011064684460EE0171B73EB050705D322
:10459000121B63EB050306434CEA010C49084FEA82
:1045A000300092185B4150EA0107EDD152EA030056
:1045B00012D082EA040083EA0501084305D0101BEB
:1045C000AB4106D20122002306E000224FF0004357
:1045D00002E06FF0010253101AEB06004CEB085199
:1045E00010EB0A0041EB0B01BDE8F04D00F0FFB805
:1045F000C10F80EAE0700844CA079623002100F04A
:10460000C8B820F00040C10DC0F3160040F400000F
:104610007F2901DA00207047962903DCC1F1960159
:10462000C840704796398840704700F0004230F02B
:1046300000400AD0C10D01F56071C0F3160042EAD6
:104640000151C208400711437047002001467047DE
:1046500001F0004330B421F0004150EA010206D0DD
:104660000A0DA2F56072C1F31301002A02DC30BC0E
:1046700000207047440F44EAC104C100E01830BC78
:1046800000EBC25000F07CB8002801DBC0F1004014
:10469000002901DBC1F1004181427047002801DBA4
:1046A000C0F10040002901DBC1F1004188427047A0
:1046B00030B50B46014600202022012409E021FAF2
:1046C00002F59D4205D303FA02F5491B04FA02F5EF
:1046D0002844151EA2F10102F1DC30BD2DE9F05F86
:1046E0000546002092469B46884606468146402461
:1046F0001BE0284641464746224600F017F953463C
:104700005A46C01A914110D311461846224600F06D
:1047100016F82D1A67EB01084F46224601200021AA
:1047200000F00DF817EB00094E41201EA4F1010422
:10473000DFDC484631462A464346BDE8F09F202A42
:1047400004DB203A00FA02F1002070479140C2F1E8
:10475000200320FA03F3194390407047202A06DB18
:10476000CB17203A41FA02F043EAE07306E041FA3F
:1047700002F3D040C2F1200291400843194670472D
:104780000029A8BF7047401C490008BF20F0010065
:10479000704710B4B0FA80FC00FA0CF050EA010443
:1047A00004BF10BC704749B1CCF1200421FA04F4D5
:1047B00011FA0CF118BF012121430843A3EB0C01AE
:1047C000CB1D4FEA00614FEA102042BF002010BC11
:1047D000704700EBC35010440029A4BF10BC7047C1
:1047E000401C490008BF20F0010010BC704710B504
:1047F000141E73F1000408DA401C41F10001921804
:104800005B411A4301D120F0010010BD2DE9F04DAC
:1048100092469B4611B1B1FA81F202E0B0FA80F201
:1048200020329046FFF78BFF04460F4640EA0A000D
:1048300041EA0B0153465A46084313D0114653EA46
:10484000010019D0C8F14002504600F06FF805464B
:104850000E46504659464246FFF771FF084305D0C1
:10486000012004E020463946BDE8F08D00200543D4
:1048700046EAE0762C4337430A986305E40AA0EB46
:1048800008000022FD0A44EA47540A3002D50020FD
:104890000146E9E7010510196941DDE908450019FC
:1048A0006941BDE8F04DA2E7C1F30A52C1F313011B
:1048B00040F2FF3341F480119A4202DA00200146AF
:1048C000704740F233439A42A2F2334202DC524232
:1048D00000F02CB8FFF733BF30B5041E71F10004AF
:1048E00004DB4FF00044404264EB0101141E73F1FD
:1048F000000405DB1C464FF00043524263EB040307
:10490000994208BF904230BD064C074D06E0E06872
:1049100040F0010394E8070098471034AC42F6D306
:10492000FBF70AFC90520008B0520008202A04DB72
:10493000203A21FA02F00021704721FA02F3D04018
:10494000C2F12002914008431946704770B58C1897
:1049500010F8015B15F0070301D110F8013B2A1193
:1049600006D110F8012B03E010F8016B01F8016B80
:104970005B1EF9D12B0705D40023521E0DD401F87C
:10498000013BFAE710F8013BCB1A921C03E013F845
:10499000015B01F8015B521EF9D5A142D8D300207A
:1049A00070BD00007CB5491E1C461546CDE90001CE
:1049B000044B6A462146284600F0C8F8009A0021B8
:1049C00011707CBD7B52000802E008C8121F08C1AC
:1049D000002AFAD170477047002001E001C1121F80
:1049E000002AFBD1704700002DE9FF5FDDE90220BE
:1049F000010DDDF838B0024318D044F61050A1F292
:104A0000FF3141430D140F98012820D0A5EB0B0076
:104A1000401C5FEA000A4FF00004474EDFF81C918B
:104A2000A046504616D5CAF1000728E00F98012489
:104A300043A2012808D0002100980F9BC0E9002163
:104A4000C0E90243BDE8FF9F6FEA0B01F4E7CBF139
:104A50000000DEE7074612E0F80707D0224633469B
:104A600040464946FFF7E3FC8046894622463346E6
:104A700010461946FFF7DBFC04460E467F10002F58
:104A8000EAD1DDE90201BAF1000F42464B4602DAF3
:104A9000FFF7CDFC01E0FFF73CFD04460E46002287
:104AA000284BFFF719FF03D84FF0FF30014607E00E
:104AB0000022254B20463146FFF712FCFFF7F4FE9B
:104AC000102409E0002C0ADB0A220023FFF706FE6F
:104AD000019B30321A55641E50EA0102F2D1641C67
:104AE000019AC4F1110314440F9A012A03D0012240
:104AF00008430DD10AE0084304D000204FF0110B09
:104B00000F9080E7A3EB0B056D1E0DE05B4504DD08
:104B10004FF0000205F1010504E003DA4FF0000256
:104B2000A5F10105002AECD000980F99C0E90231E7
:104B3000C0E9004586E70000000024400000F03F87
:104B4000300000000000F0430000E03F2DE9FF4F7F
:104B500095B09B468946064600250FE2252877D169
:104B600000242746F84A0121059400E0044316F882
:104B7000013F203B01FA03F01042F7D130782A2898
:104B800011D06FF02F033078A0F13002092A16D827
:104B9000059A44F0020402EB820203EB4202104445
:104BA000761C0590EFE759F8042B0592002A03DAEA
:104BB000504244F40054059044F00204761C3078CE
:104BC0002E2816D116F8010F44F004042A280DD01F
:104BD0006FF02F023078A0F13003092B09D807EBD2
:104BE000870302EB4303C718761CF3E759F8047BED
:104BF000761C30786C280FD006DC4C2817D068283B
:104C00000DD06A2814D104E0742810D07A280FD16E
:104C10000DE044F400140AE044F4801401E044F48C
:104C200040147278824202D104F58014761C761CFE
:104C3000307866280BD013DC582877D009DC0028A0
:104C400075D04528F6D04628F4D047281AD19DE1E2
:104C500018E0632835D0642879D0652812D195E111
:104C6000702873D008DC6728F1D069286FD06E28CF
:104C70000DD06F2806D1B5E073282CD0752875D0DB
:104C8000782874D05A46179990476D1C75E1C4F383
:104C90000250022809D003280DD0D9F800100428AA
:104CA0000DD00D6009F1040967E1D9F80010EA1789
:104CB000C1E90052F6E7D9F800100D80F2E70D7057
:104CC000F0E719F8041B8DF8001000208DF80100A2
:104CD000EA46012003E059F804AB4FF0FF306107CA
:104CE0004FF0000102D40DE008F101018846B942FD
:104CF0000FDA8045F8DB1AF808100029F4D108E033
:104D000008F1010188468142FADB1AF808100029EF
:104D1000F6D105985B46A0EB080721463846179A5E
:104D200000F094FA284400EB080507E04DE029E183
:104D30000DE01AF8010B5A4617999047B8F101088F
:104D4000F7D25B4621463846179A13E142E00A2221
:104D50000092C4F302524FF0000A022A08D059F818
:104D600004CB032A4FEAEC710AD00DE029E02AE0D7
:104D700009F1070121F00702F2E802C1914609E0BA
:104D80000FFA8CFC4FEAEC71042A03D14FFA8CFC29
:104D90004FEAEC71002907DA0A460021DCF1000C29
:104DA00061EB02012D2202E0220504D52B228DF8B1
:104DB0000420012203E0E20701D02022F7E7904619
:104DC00059E00A2102E010220DE010214FF0000A04
:104DD00000910BE010224FF0000A44F00404082771
:104DE000009203E008224FF0000A0092C4F302523E
:104DF000022A05D059F804CB0021032A08D009E083
:104E000009F1070121F00702F2E802C1914605E02D
:104E10001FFA8CFC042A01D10CF0FF0C4FF00008A3
:104E2000220728D5702806D0009B83F0100353EA90
:104E30000A0305D00EE040228DF80420012208E08C
:104E40005CEA010206D030228DF804208DF80500BE
:104E500002229046009B83F0080353EA0A030AD11A
:104E60005CEA010201D1620705D530228DF80420E9
:104E70004FF001087F1E582804D034A003900EA8DC
:104E800002900DE036A0F9E753466046009AFFF71E
:104E900025FC84460398825C0298401E02900270B2
:104EA0005CEA0100F0D1029806A9081A00F1200A74
:104EB000600702D524F4803400E00127574502DD65
:104EC000A7EB0A0000E0002000EB0A010090059823
:104ED0004144401A0590E00306D45B462146179AE8
:104EE000059800F0B3F90544002706E001A85A46EA
:104EF000C05D179990476D1C7F1C4745F6DBE003AA
:104F00000CD55B462146179A059800F09FF9054499
:104F100004E030205A46179990476D1C0099481EAE
:104F200000900029F5DC08E0029802995A460078C2
:104F3000491C0291179990476D1CBAF10001AAF122
:104F4000010AF1DC65E1000009280100303132334B
:104F500034353637383961626364656600000000B5
:104F6000303132333435363738394142434445469F
:104F70000000000000F058F90544761C3078002845
:104F80007FF4ECAD19B02846BDE8F08F620700D47D
:104F9000062709F1070222F0070CFCE80223E1468C
:104FA00003F000485FEA080C02D00FF2702C0DE00D
:104FB0005FEA045C02D50FF2682C07E05FEAC47C6C
:104FC00002D00FF2602C01E0AFF2700C4FF0FF380E
:104FD00023F00043CDF850C065280CD006DC4528EE
:104FE00009D046281DD047283DD13DE0662818D07D
:104FF00067287ED138E00021112F01DB112000E06D
:10500000781CCDE9000106A90EA8FFF7EDFCDDE94B
:105010000F010E9A03910021009207F1010A0491F9
:105020004DE04FF000400097CDE9011006A90EA811
:10503000FFF7DAFCDDE90F0203920E9B11990022C3
:10504000DDF80CA00093049211B9791C00EB010A61
:10505000B7EB0A0004D4C0F1FF3007F1010A049055
:10506000AAEB0700019044E0012F00DA012700219C
:10507000112F01DD112000E03846CDE9000106A91D
:105080000EA8FFF7B1FCDDE90F010E9A0391002194
:1050900004910092BA4621070CD40399514500DAD5
:1050A0008A46BAF1010F05DD009AAAF10101515CAF
:1050B000302908D0B84202DA10F1040F06DA0121D3
:1050C000CDE9011015E0AAF10101E9E7002805DCAE
:1050D000049901440491AAEB000102E0411C5145EE
:1050E00000DD8A460499401A401C01904FF00040B0
:1050F0000290200704D40198504501DBCDF80480CC
:1051000000208DF84F0002980DF14F07B0F1004FCD
:1051100025D02B200E9002984FF0020800280CDAC0
:10512000404202902D200E9007E00A210298FFF7DE
:10513000BFFA3031029007F8011DB8F10001A8F163
:105140000108F2DC02980028EFD1791E0E98087051
:10515000307800F0200040F0450007F8020D12A85A
:10516000C01B00F107081498007800B1012000EB83
:105170000A01019801EBE07105984144401A401E74
:105180000590E00306D45B462146179A059800F087
:105190005DF805441498007818B15A46179990475D
:1051A0006D1CE00324D55B462146179A059800F054
:1051B0004DF805441CE00498002807DBDDE90301F5
:1051C000884203DD0098405C179901E01799302070
:1051D0005A469047049805F10105401C0490019837
:1051E000401E019004D12E205A46179990476D1CFD
:1051F000BAF10001AAF1010ADDDC05E017F8010BA4
:105200005A46179990476D1CB8F10001A8F10108A2
:10521000F4DC5B462146179A0598ABE62D000000AA
:105220002B000000200000002DE9F041044600257D
:105230001E461746880404D405E039462020B047AE
:105240006D1C641EF9D52846BDE8F0812DE9F041BA
:10525000044600251E469046C80301D5302700E0CD
:105260002027880404D505E041463846B0476D1C28
:10527000641EF9D52846BDE8F0814A68002A06D0A8
:105280000A68531C0B6010704868401E48607047E5
:10529000B052000800000020300100004C49000816
:1052A0003053000830010020B8050000D84900083C
:1052B0000218FF4A18015E99DB7E3C18125D3C7EA5
:1052C000DB9917B1157F111173650E11117F160C43
:1052D000107F100C243E411C470E151555350E4706
:1052E000013E4642423C360E794A5A4234027E2200
:1052F0002B3C4217061D7E0810207E17A042CDCC05
:105300004C3F54E0DD4524404E441A48040124AB90
:10531000803F0C0219092D0102030404300906071D
:10532000080902040608ACA24A041E291A0000005B
:0400000508000131BD
:00000001FF
